{
  "_format": "hh-sol-artifact-1",
  "contractName": "JobMarketV2",
  "sourceName": "contracts/JobMarketV2.sol",
  "abi": [
    {
      "inputs": [
        {
          "internalType": "address",
          "name": "_agentRegistry",
          "type": "address"
        }
      ],
      "stateMutability": "nonpayable",
      "type": "constructor"
    },
    {
      "inputs": [],
      "name": "AlreadyRated",
      "type": "error"
    },
    {
      "inputs": [],
      "name": "InvalidJob",
      "type": "error"
    },
    {
      "inputs": [],
      "name": "InvalidRating",
      "type": "error"
    },
    {
      "inputs": [],
      "name": "NotAgent",
      "type": "error"
    },
    {
      "inputs": [],
      "name": "NotClient",
      "type": "error"
    },
    {
      "inputs": [],
      "name": "WrongStatus",
      "type": "error"
    },
    {
      "anonymous": false,
      "inputs": [
        {
          "indexed": true,
          "internalType": "bytes32",
          "name": "jobId",
          "type": "bytes32"
        },
        {
          "indexed": true,
          "internalType": "address",
          "name": "client",
          "type": "address"
        },
        {
          "indexed": true,
          "internalType": "address",
          "name": "agent",
          "type": "address"
        },
        {
          "indexed": false,
          "internalType": "uint8",
          "name": "rating",
          "type": "uint8"
        },
        {
          "indexed": false,
          "internalType": "uint64",
          "name": "timestamp",
          "type": "uint64"
        }
      ],
      "name": "FeedbackSubmitted",
      "type": "event"
    },
    {
      "anonymous": false,
      "inputs": [
        {
          "indexed": true,
          "internalType": "bytes32",
          "name": "jobId",
          "type": "bytes32"
        },
        {
          "indexed": true,
          "internalType": "address",
          "name": "agent",
          "type": "address"
        },
        {
          "indexed": false,
          "internalType": "uint64",
          "name": "timestamp",
          "type": "uint64"
        }
      ],
      "name": "JobAccepted",
      "type": "event"
    },
    {
      "anonymous": false,
      "inputs": [
        {
          "indexed": true,
          "internalType": "bytes32",
          "name": "jobId",
          "type": "bytes32"
        },
        {
          "indexed": false,
          "internalType": "uint64",
          "name": "timestamp",
          "type": "uint64"
        }
      ],
      "name": "JobCancelled",
      "type": "event"
    },
    {
      "anonymous": false,
      "inputs": [
        {
          "indexed": true,
          "internalType": "bytes32",
          "name": "jobId",
          "type": "bytes32"
        },
        {
          "indexed": false,
          "internalType": "string",
          "name": "deliverableUri",
          "type": "string"
        },
        {
          "indexed": false,
          "internalType": "uint64",
          "name": "timestamp",
          "type": "uint64"
        }
      ],
      "name": "JobCompleted",
      "type": "event"
    },
    {
      "anonymous": false,
      "inputs": [
        {
          "indexed": true,
          "internalType": "bytes32",
          "name": "jobId",
          "type": "bytes32"
        },
        {
          "indexed": true,
          "internalType": "address",
          "name": "client",
          "type": "address"
        },
        {
          "indexed": false,
          "internalType": "string",
          "name": "description",
          "type": "string"
        },
        {
          "indexed": false,
          "internalType": "uint256",
          "name": "payment",
          "type": "uint256"
        },
        {
          "indexed": false,
          "internalType": "uint64",
          "name": "timestamp",
          "type": "uint64"
        }
      ],
      "name": "JobPosted",
      "type": "event"
    },
    {
      "inputs": [
        {
          "internalType": "bytes32",
          "name": "jobId",
          "type": "bytes32"
        }
      ],
      "name": "acceptJob",
      "outputs": [],
      "stateMutability": "nonpayable",
      "type": "function"
    },
    {
      "inputs": [],
      "name": "agentRegistry",
      "outputs": [
        {
          "internalType": "contract AgentRegistryV2",
          "name": "",
          "type": "address"
        }
      ],
      "stateMutability": "view",
      "type": "function"
    },
    {
      "inputs": [
        {
          "internalType": "bytes32",
          "name": "jobId",
          "type": "bytes32"
        }
      ],
      "name": "cancelJob",
      "outputs": [],
      "stateMutability": "nonpayable",
      "type": "function"
    },
    {
      "inputs": [
        {
          "internalType": "bytes32",
          "name": "jobId",
          "type": "bytes32"
        },
        {
          "internalType": "string",
          "name": "deliverableUri",
          "type": "string"
        }
      ],
      "name": "completeJob",
      "outputs": [],
      "stateMutability": "nonpayable",
      "type": "function"
    },
    {
      "inputs": [
        {
          "internalType": "bytes32",
          "name": "",
          "type": "bytes32"
        }
      ],
      "name": "feedback",
      "outputs": [
        {
          "internalType": "bytes32",
          "name": "jobId",
          "type": "bytes32"
        },
        {
          "internalType": "address",
          "name": "client",
          "type": "address"
        },
        {
          "internalType": "address",
          "name": "agent",
          "type": "address"
        },
        {
          "internalType": "uint8",
          "name": "rating",
          "type": "uint8"
        },
        {
          "internalType": "string",
          "name": "commentUri",
          "type": "string"
        },
        {
          "internalType": "bytes32",
          "name": "proofOfPayment",
          "type": "bytes32"
        },
        {
          "internalType": "uint256",
          "name": "paymentAmount",
          "type": "uint256"
        },
        {
          "internalType": "uint64",
          "name": "timestamp",
          "type": "uint64"
        }
      ],
      "stateMutability": "view",
      "type": "function"
    },
    {
      "inputs": [
        {
          "internalType": "bytes32",
          "name": "",
          "type": "bytes32"
        }
      ],
      "name": "feedbackSubmitted",
      "outputs": [
        {
          "internalType": "bool",
          "name": "",
          "type": "bool"
        }
      ],
      "stateMutability": "view",
      "type": "function"
    },
    {
      "inputs": [
        {
          "internalType": "bytes32",
          "name": "jobId",
          "type": "bytes32"
        }
      ],
      "name": "getFeedback",
      "outputs": [
        {
          "components": [
            {
              "internalType": "bytes32",
              "name": "jobId",
              "type": "bytes32"
            },
            {
              "internalType": "address",
              "name": "client",
              "type": "address"
            },
            {
              "internalType": "address",
              "name": "agent",
              "type": "address"
            },
            {
              "internalType": "uint8",
              "name": "rating",
              "type": "uint8"
            },
            {
              "internalType": "string",
              "name": "commentUri",
              "type": "string"
            },
            {
              "internalType": "bytes32",
              "name": "proofOfPayment",
              "type": "bytes32"
            },
            {
              "internalType": "uint256",
              "name": "paymentAmount",
              "type": "uint256"
            },
            {
              "internalType": "uint64",
              "name": "timestamp",
              "type": "uint64"
            }
          ],
          "internalType": "struct JobMarketV2.Feedback",
          "name": "",
          "type": "tuple"
        }
      ],
      "stateMutability": "view",
      "type": "function"
    },
    {
      "inputs": [
        {
          "internalType": "bytes32",
          "name": "jobId",
          "type": "bytes32"
        }
      ],
      "name": "getJob",
      "outputs": [
        {
          "components": [
            {
              "internalType": "bytes32",
              "name": "jobId",
              "type": "bytes32"
            },
            {
              "internalType": "address",
              "name": "client",
              "type": "address"
            },
            {
              "internalType": "address",
              "name": "agent",
              "type": "address"
            },
            {
              "internalType": "string",
              "name": "description",
              "type": "string"
            },
            {
              "internalType": "string",
              "name": "skillsRequired",
              "type": "string"
            },
            {
              "internalType": "uint256",
              "name": "payment",
              "type": "uint256"
            },
            {
              "internalType": "enum JobMarketV2.JobStatus",
              "name": "status",
              "type": "uint8"
            },
            {
              "internalType": "uint64",
              "name": "postedAt",
              "type": "uint64"
            },
            {
              "internalType": "uint64",
              "name": "acceptedAt",
              "type": "uint64"
            },
            {
              "internalType": "uint64",
              "name": "completedAt",
              "type": "uint64"
            },
            {
              "internalType": "string",
              "name": "deliverableUri",
              "type": "string"
            }
          ],
          "internalType": "struct JobMarketV2.Job",
          "name": "",
          "type": "tuple"
        }
      ],
      "stateMutability": "view",
      "type": "function"
    },
    {
      "inputs": [],
      "name": "getJobCount",
      "outputs": [
        {
          "internalType": "uint256",
          "name": "",
          "type": "uint256"
        }
      ],
      "stateMutability": "view",
      "type": "function"
    },
    {
      "inputs": [
        {
          "internalType": "uint256",
          "name": "index",
          "type": "uint256"
        }
      ],
      "name": "getJobIdAt",
      "outputs": [
        {
          "internalType": "bytes32",
          "name": "",
          "type": "bytes32"
        }
      ],
      "stateMutability": "view",
      "type": "function"
    },
    {
      "inputs": [
        {
          "internalType": "uint256",
          "name": "",
          "type": "uint256"
        }
      ],
      "name": "jobIds",
      "outputs": [
        {
          "internalType": "bytes32",
          "name": "",
          "type": "bytes32"
        }
      ],
      "stateMutability": "view",
      "type": "function"
    },
    {
      "inputs": [
        {
          "internalType": "bytes32",
          "name": "",
          "type": "bytes32"
        }
      ],
      "name": "jobs",
      "outputs": [
        {
          "internalType": "bytes32",
          "name": "jobId",
          "type": "bytes32"
        },
        {
          "internalType": "address",
          "name": "client",
          "type": "address"
        },
        {
          "internalType": "address",
          "name": "agent",
          "type": "address"
        },
        {
          "internalType": "string",
          "name": "description",
          "type": "string"
        },
        {
          "internalType": "string",
          "name": "skillsRequired",
          "type": "string"
        },
        {
          "internalType": "uint256",
          "name": "payment",
          "type": "uint256"
        },
        {
          "internalType": "enum JobMarketV2.JobStatus",
          "name": "status",
          "type": "uint8"
        },
        {
          "internalType": "uint64",
          "name": "postedAt",
          "type": "uint64"
        },
        {
          "internalType": "uint64",
          "name": "acceptedAt",
          "type": "uint64"
        },
        {
          "internalType": "uint64",
          "name": "completedAt",
          "type": "uint64"
        },
        {
          "internalType": "string",
          "name": "deliverableUri",
          "type": "string"
        }
      ],
      "stateMutability": "view",
      "type": "function"
    },
    {
      "inputs": [
        {
          "internalType": "string",
          "name": "description",
          "type": "string"
        },
        {
          "internalType": "string",
          "name": "skillsRequired",
          "type": "string"
        },
        {
          "internalType": "uint256",
          "name": "payment",
          "type": "uint256"
        }
      ],
      "name": "postJob",
      "outputs": [
        {
          "internalType": "bytes32",
          "name": "",
          "type": "bytes32"
        }
      ],
      "stateMutability": "payable",
      "type": "function"
    },
    {
      "inputs": [
        {
          "internalType": "bytes32",
          "name": "jobId",
          "type": "bytes32"
        },
        {
          "internalType": "uint8",
          "name": "rating",
          "type": "uint8"
        },
        {
          "internalType": "string",
          "name": "commentUri",
          "type": "string"
        },
        {
          "internalType": "bytes32",
          "name": "proofOfPayment",
          "type": "bytes32"
        }
      ],
      "name": "submitFeedback",
      "outputs": [],
      "stateMutability": "nonpayable",
      "type": "function"
    }
  ],
  "bytecode": "0x608060405234801561000f575f5ffd5b50604051613278380380613278833981810160405281019061003191906100d4565b805f5f6101000a81548173ffffffffffffffffffffffffffffffffffffffff021916908373ffffffffffffffffffffffffffffffffffffffff160217905550506100ff565b5f5ffd5b5f73ffffffffffffffffffffffffffffffffffffffff82169050919050565b5f6100a38261007a565b9050919050565b6100b381610099565b81146100bd575f5ffd5b50565b5f815190506100ce816100aa565b92915050565b5f602082840312156100e9576100e8610076565b5b5f6100f6848285016100c0565b91505092915050565b61316c8061010c5f395ff3fe6080604052600436106100dc575f3560e01c80635fae14501161007e578063b02b4a2f11610058578063b02b4a2f146102e8578063b894879014610312578063bd26ba701461033a578063f729cf0d1461037d576100dc565b80635fae1450146102485780636465cfc4146102705780636942f7b2146102ac576100dc565b806338ed7cfc116100ba57806338ed7cfc1461016e5780634162cc88146101b457806358dce955146101f05780635c3b9c4a14610218576100dc565b80630d1cfcae146100e05780631be66b9e1461010a578063232b0e7914610132575b5f5ffd5b3480156100eb575f5ffd5b506100f46103b9565b604051610101919061201d565b60405180910390f35b348015610115575f5ffd5b50610130600480360381019061012b91906120d2565b6103dd565b005b34801561013d575f5ffd5b506101586004803603810190610153919061212f565b610664565b60405161016591906122fb565b60405180910390f35b348015610179575f5ffd5b50610194600480360381019061018f919061212f565b610892565b6040516101ab9b9a99989796959493929190612412565b60405180910390f35b3480156101bf575f5ffd5b506101da60048036038101906101d591906124fa565b610b00565b6040516101e79190612525565b60405180910390f35b3480156101fb575f5ffd5b5061021660048036038101906102119190612568565b610b20565b005b610232600480360381019061022d91906125ec565b611036565b60405161023f9190612525565b60405180910390f35b348015610253575f5ffd5b5061026e6004803603810190610269919061212f565b611446565b005b34801561027b575f5ffd5b506102966004803603810190610291919061212f565b611687565b6040516102a39190612697565b60405180910390f35b3480156102b7575f5ffd5b506102d260048036038101906102cd91906124fa565b6116a4565b6040516102df9190612525565b60405180910390f35b3480156102f3575f5ffd5b506102fc6116c9565b60405161030991906126b0565b60405180910390f35b34801561031d575f5ffd5b506103386004803603810190610333919061212f565b6116d5565b005b348015610345575f5ffd5b50610360600480360381019061035b919061212f565b6119ed565b6040516103749897969594939291906126d8565b60405180910390f35b348015610388575f5ffd5b506103a3600480360381019061039e919061212f565b611b15565b6040516103b09190612864565b60405180910390f35b5f5f9054906101000a900473ffffffffffffffffffffffffffffffffffffffff1681565b5f60015f8581526020019081526020015f2090506001600481111561040557610404612390565b5b816006015f9054906101000a900460ff16600481111561042857610427612390565b5b1461045f576040517f8e78f0cb00000000000000000000000000000000000000000000000000000000815260040160405180910390fd5b3373ffffffffffffffffffffffffffffffffffffffff16816002015f9054906101000a900473ffffffffffffffffffffffffffffffffffffffff1673ffffffffffffffffffffffffffffffffffffffff16146104e7576040517f0d9ab13f00000000000000000000000000000000000000000000000000000000815260040160405180910390fd5b6002816006015f6101000a81548160ff0219169083600481111561050e5761050d612390565b5b0217905550428160060160116101000a81548167ffffffffffffffff021916908367ffffffffffffffff1602179055508282826007019182610551929190612aaf565b505f816002015f9054906101000a900473ffffffffffffffffffffffffffffffffffffffff1673ffffffffffffffffffffffffffffffffffffffff16826005015460405161059e90612ba9565b5f6040518083038185875af1925050503d805f81146105d8576040519150601f19603f3d011682016040523d82523d5f602084013e6105dd565b606091505b5050905080610621576040517f08c379a000000000000000000000000000000000000000000000000000000000815260040161061890612c07565b60405180910390fd5b847f34e07df4af83a11d73ea0acca6ff85a8c1224148d622f1e829710d738016d13385854260405161065593929190612c5f565b60405180910390a25050505050565b61066c611e7e565b60035f8381526020019081526020015f205f9054906101000a900460ff166106c9576040517f08c379a00000000000000000000000000000000000000000000000000000000081526004016106c090612cd9565b60405180910390fd5b60025f8381526020019081526020015f20604051806101000160405290815f8201548152602001600182015f9054906101000a900473ffffffffffffffffffffffffffffffffffffffff1673ffffffffffffffffffffffffffffffffffffffff1673ffffffffffffffffffffffffffffffffffffffff168152602001600282015f9054906101000a900473ffffffffffffffffffffffffffffffffffffffff1673ffffffffffffffffffffffffffffffffffffffff1673ffffffffffffffffffffffffffffffffffffffff1681526020016002820160149054906101000a900460ff1660ff1660ff1681526020016003820180546107c6906128e8565b80601f01602080910402602001604051908101604052809291908181526020018280546107f2906128e8565b801561083d5780601f106108145761010080835404028352916020019161083d565b820191905f5260205f20905b81548152906001019060200180831161082057829003601f168201915b505050505081526020016004820154815260200160058201548152602001600682015f9054906101000a900467ffffffffffffffff1667ffffffffffffffff1667ffffffffffffffff16815250509050919050565b6001602052805f5260405f205f91509050805f015490806001015f9054906101000a900473ffffffffffffffffffffffffffffffffffffffff1690806002015f9054906101000a900473ffffffffffffffffffffffffffffffffffffffff1690806003018054610901906128e8565b80601f016020809104026020016040519081016040528092919081815260200182805461092d906128e8565b80156109785780601f1061094f57610100808354040283529160200191610978565b820191905f5260205f20905b81548152906001019060200180831161095b57829003601f168201915b50505050509080600401805461098d906128e8565b80601f01602080910402602001604051908101604052809291908181526020018280546109b9906128e8565b8015610a045780601f106109db57610100808354040283529160200191610a04565b820191905f5260205f20905b8154815290600101906020018083116109e757829003601f168201915b505050505090806005015490806006015f9054906101000a900460ff16908060060160019054906101000a900467ffffffffffffffff16908060060160099054906101000a900467ffffffffffffffff16908060060160119054906101000a900467ffffffffffffffff1690806007018054610a7f906128e8565b80601f0160208091040260200160405190810160405280929190818152602001828054610aab906128e8565b8015610af65780601f10610acd57610100808354040283529160200191610af6565b820191905f5260205f20905b815481529060010190602001808311610ad957829003601f168201915b505050505090508b565b60048181548110610b0f575f80fd5b905f5260205f20015f915090505481565b5f60015f8781526020019081526020015f20905060026004811115610b4857610b47612390565b5b816006015f9054906101000a900460ff166004811115610b6b57610b6a612390565b5b14610ba2576040517f8e78f0cb00000000000000000000000000000000000000000000000000000000815260040160405180910390fd5b3373ffffffffffffffffffffffffffffffffffffffff16816001015f9054906101000a900473ffffffffffffffffffffffffffffffffffffffff1673ffffffffffffffffffffffffffffffffffffffff1614610c2a576040517f20dbc87400000000000000000000000000000000000000000000000000000000815260040160405180910390fd5b60035f8781526020019081526020015f205f9054906101000a900460ff1615610c7f576040517f44a5974800000000000000000000000000000000000000000000000000000000815260040160405180910390fd5b60018560ff161080610c94575060058560ff16115b15610ccb576040517fd29df2dd00000000000000000000000000000000000000000000000000000000815260040160405180910390fd5b6040518061010001604052808781526020013373ffffffffffffffffffffffffffffffffffffffff168152602001826002015f9054906101000a900473ffffffffffffffffffffffffffffffffffffffff1673ffffffffffffffffffffffffffffffffffffffff1681526020018660ff16815260200185858080601f0160208091040260200160405190810160405280939291908181526020018383808284375f81840152601f19601f820116905080830192505050505050508152602001838152602001826005015481526020014267ffffffffffffffff1681525060025f8881526020019081526020015f205f820151815f01556020820151816001015f6101000a81548173ffffffffffffffffffffffffffffffffffffffff021916908373ffffffffffffffffffffffffffffffffffffffff1602179055506040820151816002015f6101000a81548173ffffffffffffffffffffffffffffffffffffffff021916908373ffffffffffffffffffffffffffffffffffffffff16021790555060608201518160020160146101000a81548160ff021916908360ff1602179055506080820151816003019081610e839190612cf7565b5060a0820151816004015560c0820151816005015560e0820151816006015f6101000a81548167ffffffffffffffff021916908367ffffffffffffffff160217905550905050600160035f8881526020019081526020015f205f6101000a81548160ff0219169083151502179055505f5f9054906101000a900473ffffffffffffffffffffffffffffffffffffffff1673ffffffffffffffffffffffffffffffffffffffff1663cc08a966826002015f9054906101000a900473ffffffffffffffffffffffffffffffffffffffff168784600501546040518463ffffffff1660e01b8152600401610f7693929190612dc6565b5f604051808303815f87803b158015610f8d575f5ffd5b505af1158015610f9f573d5f5f3e3d5ffd5b50505050806002015f9054906101000a900473ffffffffffffffffffffffffffffffffffffffff1673ffffffffffffffffffffffffffffffffffffffff163373ffffffffffffffffffffffffffffffffffffffff16877fcb4ebb8103530166393047df71af98a4184a4bd69eb1aa106eb3055440ad7d7f8842604051611026929190612dfb565b60405180910390a4505050505050565b5f813414801561104557505f82115b611084576040517f08c379a000000000000000000000000000000000000000000000000000000000815260040161107b90612e6c565b60405180910390fd5b5f334288886005546040516020016110a0959493929190612f1d565b60405160208183030381529060405280519060200120905060055f8154809291906110ca90612f95565b91905055506040518061016001604052808281526020013373ffffffffffffffffffffffffffffffffffffffff1681526020015f73ffffffffffffffffffffffffffffffffffffffff16815260200188888080601f0160208091040260200160405190810160405280939291908181526020018383808284375f81840152601f19601f82011690508083019250505050505050815260200186868080601f0160208091040260200160405190810160405280939291908181526020018383808284375f81840152601f19601f8201169050808301925050505050505081526020018481526020015f60048111156111c4576111c3612390565b5b81526020014267ffffffffffffffff1681526020015f67ffffffffffffffff1681526020015f67ffffffffffffffff16815260200160405180602001604052805f81525081525060015f8381526020019081526020015f205f820151815f01556020820151816001015f6101000a81548173ffffffffffffffffffffffffffffffffffffffff021916908373ffffffffffffffffffffffffffffffffffffffff1602179055506040820151816002015f6101000a81548173ffffffffffffffffffffffffffffffffffffffff021916908373ffffffffffffffffffffffffffffffffffffffff16021790555060608201518160030190816112c59190612cf7565b5060808201518160040190816112db9190612cf7565b5060a0820151816005015560c0820151816006015f6101000a81548160ff021916908360048111156113105761130f612390565b5b021790555060e08201518160060160016101000a81548167ffffffffffffffff021916908367ffffffffffffffff1602179055506101008201518160060160096101000a81548167ffffffffffffffff021916908367ffffffffffffffff1602179055506101208201518160060160116101000a81548167ffffffffffffffff021916908367ffffffffffffffff1602179055506101408201518160070190816113ba9190612cf7565b50905050600481908060018154018082558091505060019003905f5260205f20015f90919091909150553373ffffffffffffffffffffffffffffffffffffffff16817f494929e090656a713da5c6e81b25771797b8634088aa3b4f2c9b21da21614d08898987426040516114319493929190612fdc565b60405180910390a38091505095945050505050565b5f60015f8381526020019081526020015f2090503373ffffffffffffffffffffffffffffffffffffffff16816001015f9054906101000a900473ffffffffffffffffffffffffffffffffffffffff1673ffffffffffffffffffffffffffffffffffffffff16146114e2576040517f20dbc87400000000000000000000000000000000000000000000000000000000815260040160405180910390fd5b5f60048111156114f5576114f4612390565b5b816006015f9054906101000a900460ff16600481111561151857611517612390565b5b1461154f576040517f8e78f0cb00000000000000000000000000000000000000000000000000000000815260040160405180910390fd5b6004816006015f6101000a81548160ff0219169083600481111561157657611575612390565b5b02179055505f816001015f9054906101000a900473ffffffffffffffffffffffffffffffffffffffff1673ffffffffffffffffffffffffffffffffffffffff1682600501546040516115c790612ba9565b5f6040518083038185875af1925050503d805f8114611601576040519150601f19603f3d011682016040523d82523d5f602084013e611606565b606091505b505090508061164a576040517f08c379a000000000000000000000000000000000000000000000000000000000815260040161164190613064565b60405180910390fd5b827fe4357dcfc4b9458830bc1f688d63057c84669f3072f38119e3990f07ea8dff934260405161167a9190613082565b60405180910390a2505050565b6003602052805f5260405f205f915054906101000a900460ff1681565b5f600482815481106116b9576116b861309b565b5b905f5260205f2001549050919050565b5f600480549050905090565b5f60015f8381526020019081526020015f2090505f73ffffffffffffffffffffffffffffffffffffffff16816001015f9054906101000a900473ffffffffffffffffffffffffffffffffffffffff1673ffffffffffffffffffffffffffffffffffffffff1603611771576040517f71c8f46000000000000000000000000000000000000000000000000000000000815260040160405180910390fd5b5f600481111561178457611783612390565b5b816006015f9054906101000a900460ff1660048111156117a7576117a6612390565b5b146117de576040517f8e78f0cb00000000000000000000000000000000000000000000000000000000815260040160405180910390fd5b5f5f9054906101000a900473ffffffffffffffffffffffffffffffffffffffff1673ffffffffffffffffffffffffffffffffffffffff1663c3c5a547336040518263ffffffff1660e01b815260040161183791906130c8565b602060405180830381865afa158015611852573d5f5f3e3d5ffd5b505050506040513d601f19601f82011682018060405250810190611876919061310b565b611901575f5f9054906101000a900473ffffffffffffffffffffffffffffffffffffffff1673ffffffffffffffffffffffffffffffffffffffff1663ef144406336040518263ffffffff1660e01b81526004016118d391906130c8565b5f604051808303815f87803b1580156118ea575f5ffd5b505af11580156118fc573d5f5f3e3d5ffd5b505050505b33816002015f6101000a81548173ffffffffffffffffffffffffffffffffffffffff021916908373ffffffffffffffffffffffffffffffffffffffff1602179055506001816006015f6101000a81548160ff0219169083600481111561196a57611969612390565b5b0217905550428160060160096101000a81548167ffffffffffffffff021916908367ffffffffffffffff1602179055503373ffffffffffffffffffffffffffffffffffffffff16827f3166ff78d63ee45bdd738f94eccf3e9ef67cc9504d8d6f4c600e82bb91a454b6426040516119e19190613082565b60405180910390a35050565b6002602052805f5260405f205f91509050805f015490806001015f9054906101000a900473ffffffffffffffffffffffffffffffffffffffff1690806002015f9054906101000a900473ffffffffffffffffffffffffffffffffffffffff16908060020160149054906101000a900460ff1690806003018054611a6f906128e8565b80601f0160208091040260200160405190810160405280929190818152602001828054611a9b906128e8565b8015611ae65780601f10611abd57610100808354040283529160200191611ae6565b820191905f5260205f20905b815481529060010190602001808311611ac957829003601f168201915b505050505090806004015490806005015490806006015f9054906101000a900467ffffffffffffffff16905088565b611b1d611ef5565b60015f8381526020019081526020015f20604051806101600160405290815f8201548152602001600182015f9054906101000a900473ffffffffffffffffffffffffffffffffffffffff1673ffffffffffffffffffffffffffffffffffffffff1673ffffffffffffffffffffffffffffffffffffffff168152602001600282015f9054906101000a900473ffffffffffffffffffffffffffffffffffffffff1673ffffffffffffffffffffffffffffffffffffffff1673ffffffffffffffffffffffffffffffffffffffff168152602001600382018054611bfd906128e8565b80601f0160208091040260200160405190810160405280929190818152602001828054611c29906128e8565b8015611c745780601f10611c4b57610100808354040283529160200191611c74565b820191905f5260205f20905b815481529060010190602001808311611c5757829003601f168201915b50505050508152602001600482018054611c8d906128e8565b80601f0160208091040260200160405190810160405280929190818152602001828054611cb9906128e8565b8015611d045780601f10611cdb57610100808354040283529160200191611d04565b820191905f5260205f20905b815481529060010190602001808311611ce757829003601f168201915b5050505050815260200160058201548152602001600682015f9054906101000a900460ff166004811115611d3b57611d3a612390565b5b6004811115611d4d57611d4c612390565b5b81526020016006820160019054906101000a900467ffffffffffffffff1667ffffffffffffffff1667ffffffffffffffff1681526020016006820160099054906101000a900467ffffffffffffffff1667ffffffffffffffff1667ffffffffffffffff1681526020016006820160119054906101000a900467ffffffffffffffff1667ffffffffffffffff1667ffffffffffffffff168152602001600782018054611df7906128e8565b80601f0160208091040260200160405190810160405280929190818152602001828054611e23906128e8565b8015611e6e5780601f10611e4557610100808354040283529160200191611e6e565b820191905f5260205f20905b815481529060010190602001808311611e5157829003601f168201915b5050505050815250509050919050565b6040518061010001604052805f81526020015f73ffffffffffffffffffffffffffffffffffffffff1681526020015f73ffffffffffffffffffffffffffffffffffffffff1681526020015f60ff168152602001606081526020015f81526020015f81526020015f67ffffffffffffffff1681525090565b6040518061016001604052805f81526020015f73ffffffffffffffffffffffffffffffffffffffff1681526020015f73ffffffffffffffffffffffffffffffffffffffff16815260200160608152602001606081526020015f81526020015f6004811115611f6657611f65612390565b5b81526020015f67ffffffffffffffff1681526020015f67ffffffffffffffff1681526020015f67ffffffffffffffff168152602001606081525090565b5f73ffffffffffffffffffffffffffffffffffffffff82169050919050565b5f819050919050565b5f611fe5611fe0611fdb84611fa3565b611fc2565b611fa3565b9050919050565b5f611ff682611fcb565b9050919050565b5f61200782611fec565b9050919050565b61201781611ffd565b82525050565b5f6020820190506120305f83018461200e565b92915050565b5f5ffd5b5f5ffd5b5f819050919050565b6120508161203e565b811461205a575f5ffd5b50565b5f8135905061206b81612047565b92915050565b5f5ffd5b5f5ffd5b5f5ffd5b5f5f83601f84011261209257612091612071565b5b8235905067ffffffffffffffff8111156120af576120ae612075565b5b6020830191508360018202830111156120cb576120ca612079565b5b9250929050565b5f5f5f604084860312156120e9576120e8612036565b5b5f6120f68682870161205d565b935050602084013567ffffffffffffffff8111156121175761211661203a565b5b6121238682870161207d565b92509250509250925092565b5f6020828403121561214457612143612036565b5b5f6121518482850161205d565b91505092915050565b6121638161203e565b82525050565b5f61217382611fa3565b9050919050565b61218381612169565b82525050565b5f60ff82169050919050565b61219e81612189565b82525050565b5f81519050919050565b5f82825260208201905092915050565b8281835e5f83830152505050565b5f601f19601f8301169050919050565b5f6121e6826121a4565b6121f081856121ae565b93506122008185602086016121be565b612209816121cc565b840191505092915050565b5f819050919050565b61222681612214565b82525050565b5f67ffffffffffffffff82169050919050565b6122488161222c565b82525050565b5f61010083015f8301516122645f86018261215a565b506020830151612277602086018261217a565b50604083015161228a604086018261217a565b50606083015161229d6060860182612195565b50608083015184820360808601526122b582826121dc565b91505060a08301516122ca60a086018261215a565b5060c08301516122dd60c086018261221d565b5060e08301516122f060e086018261223f565b508091505092915050565b5f6020820190508181035f830152612313818461224e565b905092915050565b6123248161203e565b82525050565b61233381612169565b82525050565b5f82825260208201905092915050565b5f612353826121a4565b61235d8185612339565b935061236d8185602086016121be565b612376816121cc565b840191505092915050565b61238a81612214565b82525050565b7f4e487b71000000000000000000000000000000000000000000000000000000005f52602160045260245ffd5b600581106123ce576123cd612390565b5b50565b5f8190506123de826123bd565b919050565b5f6123ed826123d1565b9050919050565b6123fd816123e3565b82525050565b61240c8161222c565b82525050565b5f610160820190506124265f83018e61231b565b612433602083018d61232a565b612440604083018c61232a565b8181036060830152612452818b612349565b90508181036080830152612466818a612349565b905061247560a0830189612381565b61248260c08301886123f4565b61248f60e0830187612403565b61249d610100830186612403565b6124ab610120830185612403565b8181036101408301526124be8184612349565b90509c9b505050505050505050505050565b6124d981612214565b81146124e3575f5ffd5b50565b5f813590506124f4816124d0565b92915050565b5f6020828403121561250f5761250e612036565b5b5f61251c848285016124e6565b91505092915050565b5f6020820190506125385f83018461231b565b92915050565b61254781612189565b8114612551575f5ffd5b50565b5f813590506125628161253e565b92915050565b5f5f5f5f5f6080868803121561258157612580612036565b5b5f61258e8882890161205d565b955050602061259f88828901612554565b945050604086013567ffffffffffffffff8111156125c0576125bf61203a565b5b6125cc8882890161207d565b935093505060606125df8882890161205d565b9150509295509295909350565b5f5f5f5f5f6060868803121561260557612604612036565b5b5f86013567ffffffffffffffff8111156126225761262161203a565b5b61262e8882890161207d565b9550955050602086013567ffffffffffffffff8111156126515761265061203a565b5b61265d8882890161207d565b93509350506040612670888289016124e6565b9150509295509295909350565b5f8115159050919050565b6126918161267d565b82525050565b5f6020820190506126aa5f830184612688565b92915050565b5f6020820190506126c35f830184612381565b92915050565b6126d281612189565b82525050565b5f610100820190506126ec5f83018b61231b565b6126f9602083018a61232a565b612706604083018961232a565b61271360608301886126c9565b81810360808301526127258187612349565b905061273460a083018661231b565b61274160c0830185612381565b61274e60e0830184612403565b9998505050505050505050565b612764816123e3565b82525050565b5f61016083015f8301516127805f86018261215a565b506020830151612793602086018261217a565b5060408301516127a6604086018261217a565b50606083015184820360608601526127be82826121dc565b915050608083015184820360808601526127d882826121dc565b91505060a08301516127ed60a086018261221d565b5060c083015161280060c086018261275b565b5060e083015161281360e086018261223f565b5061010083015161282861010086018261223f565b5061012083015161283d61012086018261223f565b5061014083015184820361014086015261285782826121dc565b9150508091505092915050565b5f6020820190508181035f83015261287c818461276a565b905092915050565b5f82905092915050565b7f4e487b71000000000000000000000000000000000000000000000000000000005f52604160045260245ffd5b7f4e487b71000000000000000000000000000000000000000000000000000000005f52602260045260245ffd5b5f60028204905060018216806128ff57607f821691505b602082108103612912576129116128bb565b5b50919050565b5f819050815f5260205f209050919050565b5f6020601f8301049050919050565b5f82821b905092915050565b5f600883026129747fffffffffffffffffffffffffffffffffffffffffffffffffffffffffffffffff82612939565b61297e8683612939565b95508019841693508086168417925050509392505050565b5f6129b06129ab6129a684612214565b611fc2565b612214565b9050919050565b5f819050919050565b6129c983612996565b6129dd6129d5826129b7565b848454612945565b825550505050565b5f5f905090565b6129f46129e5565b6129ff8184846129c0565b505050565b5b81811015612a2257612a175f826129ec565b600181019050612a05565b5050565b601f821115612a6757612a3881612918565b612a418461292a565b81016020851015612a50578190505b612a64612a5c8561292a565b830182612a04565b50505b505050565b5f82821c905092915050565b5f612a875f1984600802612a6c565b1980831691505092915050565b5f612a9f8383612a78565b9150826002028217905092915050565b612ab98383612884565b67ffffffffffffffff811115612ad257612ad161288e565b5b612adc82546128e8565b612ae7828285612a26565b5f601f831160018114612b14575f8415612b02578287013590505b612b0c8582612a94565b865550612b73565b601f198416612b2286612918565b5f5b82811015612b4957848901358255600182019150602085019450602081019050612b24565b86831015612b665784890135612b62601f891682612a78565b8355505b6001600288020188555050505b50505050505050565b5f81905092915050565b50565b5f612b945f83612b7c565b9150612b9f82612b86565b5f82019050919050565b5f612bb382612b89565b9150819050919050565b7f7472616e73666572206661696c656400000000000000000000000000000000005f82015250565b5f612bf1600f83612339565b9150612bfc82612bbd565b602082019050919050565b5f6020820190508181035f830152612c1e81612be5565b9050919050565b828183375f83830152505050565b5f612c3e8385612339565b9350612c4b838584612c25565b612c54836121cc565b840190509392505050565b5f6040820190508181035f830152612c78818587612c33565b9050612c876020830184612403565b949350505050565b7f6e6f20666565646261636b0000000000000000000000000000000000000000005f82015250565b5f612cc3600b83612339565b9150612cce82612c8f565b602082019050919050565b5f6020820190508181035f830152612cf081612cb7565b9050919050565b612d00826121a4565b67ffffffffffffffff811115612d1957612d1861288e565b5b612d2382546128e8565b612d2e828285612a26565b5f60209050601f831160018114612d5f575f8415612d4d578287015190505b612d578582612a94565b865550612dbe565b601f198416612d6d86612918565b5f5b82811015612d9457848901518255600182019150602085019450602081019050612d6f565b86831015612db15784890151612dad601f891682612a78565b8355505b6001600288020188555050505b505050505050565b5f606082019050612dd95f83018661232a565b612de660208301856126c9565b612df36040830184612381565b949350505050565b5f604082019050612e0e5f8301856126c9565b612e1b6020830184612403565b9392505050565b7f7061796d656e74206d69736d61746368000000000000000000000000000000005f82015250565b5f612e56601083612339565b9150612e6182612e22565b602082019050919050565b5f6020820190508181035f830152612e8381612e4a565b9050919050565b5f8160601b9050919050565b5f612ea082612e8a565b9050919050565b5f612eb182612e96565b9050919050565b612ec9612ec482612169565b612ea7565b82525050565b5f819050919050565b612ee9612ee482612214565b612ecf565b82525050565b5f81905092915050565b5f612f048385612eef565b9350612f11838584612c25565b82840190509392505050565b5f612f288288612eb8565b601482019150612f388287612ed8565b602082019150612f49828587612ef9565b9150612f558284612ed8565b6020820191508190509695505050505050565b7f4e487b71000000000000000000000000000000000000000000000000000000005f52601160045260245ffd5b5f612f9f82612214565b91507fffffffffffffffffffffffffffffffffffffffffffffffffffffffffffffffff8203612fd157612fd0612f68565b5b600182019050919050565b5f6060820190508181035f830152612ff5818688612c33565b90506130046020830185612381565b6130116040830184612403565b95945050505050565b7f726566756e64206661696c6564000000000000000000000000000000000000005f82015250565b5f61304e600d83612339565b91506130598261301a565b602082019050919050565b5f6020820190508181035f83015261307b81613042565b9050919050565b5f6020820190506130955f830184612403565b92915050565b7f4e487b71000000000000000000000000000000000000000000000000000000005f52603260045260245ffd5b5f6020820190506130db5f83018461232a565b92915050565b6130ea8161267d565b81146130f4575f5ffd5b50565b5f81519050613105816130e1565b92915050565b5f602082840312156131205761311f612036565b5b5f61312d848285016130f7565b9150509291505056fea26469706673582212206cf1da10b534d3dc490aab6490ec295dffd8874d509ba26c1fd8c90690ed0b9164736f6c634300081c0033",
  "linkReferences": {},
  "deployedLinkReferences": {}
}