{
  "_format": "hh-sol-artifact-1",
  "contractName": "Escrow",
  "sourceName": "contracts/Escrow.sol",
  "abi": [
    {
      "inputs": [],
      "stateMutability": "nonpayable",
      "type": "constructor"
    },
    {
      "inputs": [],
      "name": "AgentAlreadySet",
      "type": "error"
    },
    {
      "inputs": [],
      "name": "NoDeposit",
      "type": "error"
    },
    {
      "inputs": [],
      "name": "OnlyJobMarket",
      "type": "error"
    },
    {
      "inputs": [],
      "name": "TransferFailed",
      "type": "error"
    },
    {
      "anonymous": false,
      "inputs": [
        {
          "indexed": true,
          "internalType": "bytes32",
          "name": "jobId",
          "type": "bytes32"
        },
        {
          "indexed": false,
          "internalType": "address",
          "name": "agent",
          "type": "address"
        }
      ],
      "name": "AgentSet",
      "type": "event"
    },
    {
      "anonymous": false,
      "inputs": [
        {
          "indexed": true,
          "internalType": "bytes32",
          "name": "jobId",
          "type": "bytes32"
        },
        {
          "indexed": false,
          "internalType": "address",
          "name": "client",
          "type": "address"
        },
        {
          "indexed": false,
          "internalType": "uint256",
          "name": "amount",
          "type": "uint256"
        }
      ],
      "name": "Locked",
      "type": "event"
    },
    {
      "anonymous": false,
      "inputs": [
        {
          "indexed": true,
          "internalType": "bytes32",
          "name": "jobId",
          "type": "bytes32"
        },
        {
          "indexed": false,
          "internalType": "address",
          "name": "client",
          "type": "address"
        },
        {
          "indexed": false,
          "internalType": "uint256",
          "name": "amount",
          "type": "uint256"
        }
      ],
      "name": "Refunded",
      "type": "event"
    },
    {
      "anonymous": false,
      "inputs": [
        {
          "indexed": true,
          "internalType": "bytes32",
          "name": "jobId",
          "type": "bytes32"
        },
        {
          "indexed": false,
          "internalType": "address",
          "name": "agent",
          "type": "address"
        },
        {
          "indexed": false,
          "internalType": "uint256",
          "name": "amount",
          "type": "uint256"
        }
      ],
      "name": "Released",
      "type": "event"
    },
    {
      "inputs": [
        {
          "internalType": "bytes32",
          "name": "",
          "type": "bytes32"
        }
      ],
      "name": "deposits",
      "outputs": [
        {
          "internalType": "address",
          "name": "client",
          "type": "address"
        },
        {
          "internalType": "address",
          "name": "agent",
          "type": "address"
        },
        {
          "internalType": "uint256",
          "name": "amount",
          "type": "uint256"
        }
      ],
      "stateMutability": "view",
      "type": "function"
    },
    {
      "inputs": [
        {
          "internalType": "bytes32",
          "name": "jobId",
          "type": "bytes32"
        }
      ],
      "name": "getDeposit",
      "outputs": [
        {
          "internalType": "address",
          "name": "client",
          "type": "address"
        },
        {
          "internalType": "address",
          "name": "agent",
          "type": "address"
        },
        {
          "internalType": "uint256",
          "name": "amount",
          "type": "uint256"
        }
      ],
      "stateMutability": "view",
      "type": "function"
    },
    {
      "inputs": [],
      "name": "jobMarket",
      "outputs": [
        {
          "internalType": "address",
          "name": "",
          "type": "address"
        }
      ],
      "stateMutability": "view",
      "type": "function"
    },
    {
      "inputs": [
        {
          "internalType": "bytes32",
          "name": "jobId",
          "type": "bytes32"
        },
        {
          "internalType": "address",
          "name": "client",
          "type": "address"
        }
      ],
      "name": "lock",
      "outputs": [],
      "stateMutability": "payable",
      "type": "function"
    },
    {
      "inputs": [
        {
          "internalType": "bytes32",
          "name": "jobId",
          "type": "bytes32"
        }
      ],
      "name": "refund",
      "outputs": [],
      "stateMutability": "nonpayable",
      "type": "function"
    },
    {
      "inputs": [
        {
          "internalType": "bytes32",
          "name": "jobId",
          "type": "bytes32"
        }
      ],
      "name": "release",
      "outputs": [],
      "stateMutability": "nonpayable",
      "type": "function"
    },
    {
      "inputs": [
        {
          "internalType": "bytes32",
          "name": "jobId",
          "type": "bytes32"
        },
        {
          "internalType": "address",
          "name": "agent",
          "type": "address"
        }
      ],
      "name": "setAgent",
      "outputs": [],
      "stateMutability": "nonpayable",
      "type": "function"
    },
    {
      "inputs": [
        {
          "internalType": "address",
          "name": "_jobMarket",
          "type": "address"
        }
      ],
      "name": "setJobMarket",
      "outputs": [],
      "stateMutability": "nonpayable",
      "type": "function"
    }
  ],
  "bytecode": "0x6080604052348015600e575f5ffd5b505f60015f6101000a81548173ffffffffffffffffffffffffffffffffffffffff021916908373ffffffffffffffffffffffffffffffffffffffff160217905550610fe38061005c5f395ff3fe60806040526004361061007a575f3560e01c80637249fbb61161004d5780637249fbb6146101285780637a86983f1461015057806398957d601461018e578063c495fcda146101b65761007a565b806328a7deb61461007e5780633d4dff7b146100a657806367d42a8b146100e4578063688e3f5f1461010c575b5f5ffd5b348015610089575f5ffd5b506100a4600480360381019061009f9190610cc1565b6101e0565b005b3480156100b1575f5ffd5b506100cc60048036038101906100c79190610d1f565b6102b2565b6040516100db93929190610d71565b60405180910390f35b3480156100ef575f5ffd5b5061010a60048036038101906101059190610d1f565b610315565b005b61012660048036038101906101219190610da6565b61055f565b005b348015610133575f5ffd5b5061014e60048036038101906101499190610d1f565b6107a8565b005b34801561015b575f5ffd5b5061017660048036038101906101719190610d1f565b6109f1565b60405161018593929190610d71565b60405180910390f35b348015610199575f5ffd5b506101b460048036038101906101af9190610da6565b610a61565b005b3480156101c1575f5ffd5b506101ca610c3e565b6040516101d79190610de4565b60405180910390f35b5f73ffffffffffffffffffffffffffffffffffffffff1660015f9054906101000a900473ffffffffffffffffffffffffffffffffffffffff1673ffffffffffffffffffffffffffffffffffffffff161461026f576040517f08c379a000000000000000000000000000000000000000000000000000000000815260040161026690610e57565b60405180910390fd5b8060015f6101000a81548173ffffffffffffffffffffffffffffffffffffffff021916908373ffffffffffffffffffffffffffffffffffffffff16021790555050565b5f602052805f5260405f205f91509050805f015f9054906101000a900473ffffffffffffffffffffffffffffffffffffffff1690806001015f9054906101000a900473ffffffffffffffffffffffffffffffffffffffff16908060020154905083565b60015f9054906101000a900473ffffffffffffffffffffffffffffffffffffffff1673ffffffffffffffffffffffffffffffffffffffff163373ffffffffffffffffffffffffffffffffffffffff161461039b576040517f6beb250f00000000000000000000000000000000000000000000000000000000815260040160405180910390fd5b5f5f5f8381526020019081526020015f2090505f8160020154036103eb576040517f3a6a68b100000000000000000000000000000000000000000000000000000000815260040160405180910390fd5b5f816001015f9054906101000a900473ffffffffffffffffffffffffffffffffffffffff1690505f826002015490505f5f8581526020019081526020015f205f5f82015f6101000a81549073ffffffffffffffffffffffffffffffffffffffff0219169055600182015f6101000a81549073ffffffffffffffffffffffffffffffffffffffff0219169055600282015f905550505f8273ffffffffffffffffffffffffffffffffffffffff16826040516104a490610ea2565b5f6040518083038185875af1925050503d805f81146104de576040519150601f19603f3d011682016040523d82523d5f602084013e6104e3565b606091505b505090508061051e576040517f90b8ec1800000000000000000000000000000000000000000000000000000000815260040160405180910390fd5b847fc8fa66dff4b9073528c3f1bf21a8dc9a18fdf09847e88e96188bc953aef519f08484604051610550929190610eb6565b60405180910390a25050505050565b60015f9054906101000a900473ffffffffffffffffffffffffffffffffffffffff1673ffffffffffffffffffffffffffffffffffffffff163373ffffffffffffffffffffffffffffffffffffffff16146105e5576040517f6beb250f00000000000000000000000000000000000000000000000000000000815260040160405180910390fd5b5f3411610627576040517f08c379a000000000000000000000000000000000000000000000000000000000815260040161061e90610f27565b60405180910390fd5b5f5f5f8481526020019081526020015f20600201541461067c576040517f08c379a000000000000000000000000000000000000000000000000000000000815260040161067390610f8f565b60405180910390fd5b60405180606001604052808273ffffffffffffffffffffffffffffffffffffffff1681526020015f73ffffffffffffffffffffffffffffffffffffffff168152602001348152505f5f8481526020019081526020015f205f820151815f015f6101000a81548173ffffffffffffffffffffffffffffffffffffffff021916908373ffffffffffffffffffffffffffffffffffffffff1602179055506020820151816001015f6101000a81548173ffffffffffffffffffffffffffffffffffffffff021916908373ffffffffffffffffffffffffffffffffffffffff16021790555060408201518160020155905050817f515a19a1c83edb8613fd7de44c592958807d317b9d2c72a2b2f582ed9786b833823460405161079c929190610eb6565b60405180910390a25050565b60015f9054906101000a900473ffffffffffffffffffffffffffffffffffffffff1673ffffffffffffffffffffffffffffffffffffffff163373ffffffffffffffffffffffffffffffffffffffff161461082e576040517f6beb250f00000000000000000000000000000000000000000000000000000000815260040160405180910390fd5b5f5f5f8381526020019081526020015f2090505f81600201540361087e576040517f3a6a68b100000000000000000000000000000000000000000000000000000000815260040160405180910390fd5b5f815f015f9054906101000a900473ffffffffffffffffffffffffffffffffffffffff1690505f826002015490505f5f8581526020019081526020015f205f5f82015f6101000a81549073ffffffffffffffffffffffffffffffffffffffff0219169055600182015f6101000a81549073ffffffffffffffffffffffffffffffffffffffff0219169055600282015f905550505f8273ffffffffffffffffffffffffffffffffffffffff168260405161093690610ea2565b5f6040518083038185875af1925050503d805f8114610970576040519150601f19603f3d011682016040523d82523d5f602084013e610975565b606091505b50509050806109b0576040517f90b8ec1800000000000000000000000000000000000000000000000000000000815260040160405180910390fd5b847ff552ca82e113ac3c539c3d617f29fcd19c172a0c75dad017555c9e109f7fe18384846040516109e2929190610eb6565b60405180910390a25050505050565b5f5f5f5f5f5f8681526020019081526020015f209050805f015f9054906101000a900473ffffffffffffffffffffffffffffffffffffffff16816001015f9054906101000a900473ffffffffffffffffffffffffffffffffffffffff168260020154935093509350509193909250565b60015f9054906101000a900473ffffffffffffffffffffffffffffffffffffffff1673ffffffffffffffffffffffffffffffffffffffff163373ffffffffffffffffffffffffffffffffffffffff1614610ae7576040517f6beb250f00000000000000000000000000000000000000000000000000000000815260040160405180910390fd5b5f5f5f8481526020019081526020015f2090505f816002015403610b37576040517f3a6a68b100000000000000000000000000000000000000000000000000000000815260040160405180910390fd5b5f73ffffffffffffffffffffffffffffffffffffffff16816001015f9054906101000a900473ffffffffffffffffffffffffffffffffffffffff1673ffffffffffffffffffffffffffffffffffffffff1614610bbf576040517f41907e2900000000000000000000000000000000000000000000000000000000815260040160405180910390fd5b81816001015f6101000a81548173ffffffffffffffffffffffffffffffffffffffff021916908373ffffffffffffffffffffffffffffffffffffffff160217905550827f86476fc333e7a00a83bebd584f9c19f19959f563ae1f7fdc9c8de93bd4acc6bb83604051610c319190610de4565b60405180910390a2505050565b60015f9054906101000a900473ffffffffffffffffffffffffffffffffffffffff1681565b5f5ffd5b5f73ffffffffffffffffffffffffffffffffffffffff82169050919050565b5f610c9082610c67565b9050919050565b610ca081610c86565b8114610caa575f5ffd5b50565b5f81359050610cbb81610c97565b92915050565b5f60208284031215610cd657610cd5610c63565b5b5f610ce384828501610cad565b91505092915050565b5f819050919050565b610cfe81610cec565b8114610d08575f5ffd5b50565b5f81359050610d1981610cf5565b92915050565b5f60208284031215610d3457610d33610c63565b5b5f610d4184828501610d0b565b91505092915050565b610d5381610c86565b82525050565b5f819050919050565b610d6b81610d59565b82525050565b5f606082019050610d845f830186610d4a565b610d916020830185610d4a565b610d9e6040830184610d62565b949350505050565b5f5f60408385031215610dbc57610dbb610c63565b5b5f610dc985828601610d0b565b9250506020610dda85828601610cad565b9150509250929050565b5f602082019050610df75f830184610d4a565b92915050565b5f82825260208201905092915050565b7f616c7265616479207365740000000000000000000000000000000000000000005f82015250565b5f610e41600b83610dfd565b9150610e4c82610e0d565b602082019050919050565b5f6020820190508181035f830152610e6e81610e35565b9050919050565b5f81905092915050565b50565b5f610e8d5f83610e75565b9150610e9882610e7f565b5f82019050919050565b5f610eac82610e82565b9150819050919050565b5f604082019050610ec95f830185610d4a565b610ed66020830184610d62565b9392505050565b7f7a65726f20616d6f756e740000000000000000000000000000000000000000005f82015250565b5f610f11600b83610dfd565b9150610f1c82610edd565b602082019050919050565b5f6020820190508181035f830152610f3e81610f05565b9050919050565b7f6a6f6220616c7265616479206c6f636b656400000000000000000000000000005f82015250565b5f610f79601283610dfd565b9150610f8482610f45565b602082019050919050565b5f6020820190508181035f830152610fa681610f6d565b905091905056fea2646970667358221220ac882d3f963a1131608b3711ddd378c43f8277792e45fb0f60e23b3bee11db8b64736f6c634300081c0033",
  "linkReferences": {},
  "deployedLinkReferences": {}
}