{
  "_format": "hh-sol-artifact-1",
  "contractName": "AgentRegistryV2",
  "sourceName": "contracts/AgentRegistryV2.sol",
  "abi": [
    {
      "inputs": [],
      "stateMutability": "nonpayable",
      "type": "constructor"
    },
    {
      "inputs": [],
      "name": "AlreadyRegistered",
      "type": "error"
    },
    {
      "inputs": [],
      "name": "InvalidRating",
      "type": "error"
    },
    {
      "inputs": [],
      "name": "NotRegistered",
      "type": "error"
    },
    {
      "inputs": [],
      "name": "OnlyJobMarket",
      "type": "error"
    },
    {
      "anonymous": false,
      "inputs": [
        {
          "indexed": true,
          "internalType": "address",
          "name": "agent",
          "type": "address"
        },
        {
          "indexed": false,
          "internalType": "uint64",
          "name": "timestamp",
          "type": "uint64"
        }
      ],
      "name": "AgentDeactivated",
      "type": "event"
    },
    {
      "anonymous": false,
      "inputs": [
        {
          "indexed": true,
          "internalType": "address",
          "name": "agent",
          "type": "address"
        },
        {
          "indexed": false,
          "internalType": "string",
          "name": "metadataUri",
          "type": "string"
        },
        {
          "indexed": false,
          "internalType": "uint64",
          "name": "timestamp",
          "type": "uint64"
        },
        {
          "indexed": false,
          "internalType": "bool",
          "name": "autoCreated",
          "type": "bool"
        }
      ],
      "name": "AgentRegistered",
      "type": "event"
    },
    {
      "anonymous": false,
      "inputs": [
        {
          "indexed": true,
          "internalType": "address",
          "name": "agent",
          "type": "address"
        },
        {
          "indexed": false,
          "internalType": "string",
          "name": "metadataUri",
          "type": "string"
        },
        {
          "indexed": false,
          "internalType": "uint64",
          "name": "timestamp",
          "type": "uint64"
        }
      ],
      "name": "AgentUpdated",
      "type": "event"
    },
    {
      "anonymous": false,
      "inputs": [
        {
          "indexed": true,
          "internalType": "address",
          "name": "agent",
          "type": "address"
        },
        {
          "indexed": false,
          "internalType": "uint32",
          "name": "newAvgRating",
          "type": "uint32"
        },
        {
          "indexed": false,
          "internalType": "uint128",
          "name": "totalWeight",
          "type": "uint128"
        }
      ],
      "name": "ReputationUpdated",
      "type": "event"
    },
    {
      "inputs": [
        {
          "internalType": "address",
          "name": "",
          "type": "address"
        }
      ],
      "name": "agents",
      "outputs": [
        {
          "internalType": "address",
          "name": "wallet",
          "type": "address"
        },
        {
          "internalType": "string",
          "name": "metadataUri",
          "type": "string"
        },
        {
          "internalType": "bool",
          "name": "active",
          "type": "bool"
        },
        {
          "internalType": "bool",
          "name": "autoCreated",
          "type": "bool"
        },
        {
          "internalType": "uint128",
          "name": "totalWeightedRating",
          "type": "uint128"
        },
        {
          "internalType": "uint128",
          "name": "totalWeight",
          "type": "uint128"
        },
        {
          "internalType": "uint32",
          "name": "avgRating",
          "type": "uint32"
        },
        {
          "internalType": "uint64",
          "name": "createdAt",
          "type": "uint64"
        },
        {
          "internalType": "uint64",
          "name": "lastUpdate",
          "type": "uint64"
        }
      ],
      "stateMutability": "view",
      "type": "function"
    },
    {
      "inputs": [
        {
          "internalType": "address",
          "name": "agentAddress",
          "type": "address"
        }
      ],
      "name": "autoCreateAgent",
      "outputs": [],
      "stateMutability": "nonpayable",
      "type": "function"
    },
    {
      "inputs": [],
      "name": "deactivateAgent",
      "outputs": [],
      "stateMutability": "nonpayable",
      "type": "function"
    },
    {
      "inputs": [
        {
          "internalType": "address",
          "name": "agentAddress",
          "type": "address"
        }
      ],
      "name": "getAgent",
      "outputs": [
        {
          "components": [
            {
              "internalType": "address",
              "name": "wallet",
              "type": "address"
            },
            {
              "internalType": "string",
              "name": "metadataUri",
              "type": "string"
            },
            {
              "internalType": "bool",
              "name": "active",
              "type": "bool"
            },
            {
              "internalType": "bool",
              "name": "autoCreated",
              "type": "bool"
            },
            {
              "internalType": "uint128",
              "name": "totalWeightedRating",
              "type": "uint128"
            },
            {
              "internalType": "uint128",
              "name": "totalWeight",
              "type": "uint128"
            },
            {
              "internalType": "uint32",
              "name": "avgRating",
              "type": "uint32"
            },
            {
              "internalType": "uint64",
              "name": "createdAt",
              "type": "uint64"
            },
            {
              "internalType": "uint64",
              "name": "lastUpdate",
              "type": "uint64"
            }
          ],
          "internalType": "struct AgentRegistryV2.Agent",
          "name": "",
          "type": "tuple"
        }
      ],
      "stateMutability": "view",
      "type": "function"
    },
    {
      "inputs": [
        {
          "internalType": "address",
          "name": "",
          "type": "address"
        }
      ],
      "name": "isRegistered",
      "outputs": [
        {
          "internalType": "bool",
          "name": "",
          "type": "bool"
        }
      ],
      "stateMutability": "view",
      "type": "function"
    },
    {
      "inputs": [],
      "name": "jobMarket",
      "outputs": [
        {
          "internalType": "address",
          "name": "",
          "type": "address"
        }
      ],
      "stateMutability": "view",
      "type": "function"
    },
    {
      "inputs": [
        {
          "internalType": "string",
          "name": "metadataUri",
          "type": "string"
        }
      ],
      "name": "registerAgent",
      "outputs": [],
      "stateMutability": "nonpayable",
      "type": "function"
    },
    {
      "inputs": [
        {
          "internalType": "address",
          "name": "_jobMarket",
          "type": "address"
        }
      ],
      "name": "setJobMarket",
      "outputs": [],
      "stateMutability": "nonpayable",
      "type": "function"
    },
    {
      "inputs": [
        {
          "internalType": "string",
          "name": "metadataUri",
          "type": "string"
        }
      ],
      "name": "updateAgent",
      "outputs": [],
      "stateMutability": "nonpayable",
      "type": "function"
    },
    {
      "inputs": [
        {
          "internalType": "address",
          "name": "agentAddress",
          "type": "address"
        },
        {
          "internalType": "uint8",
          "name": "rating",
          "type": "uint8"
        },
        {
          "internalType": "uint256",
          "name": "paymentAmount",
          "type": "uint256"
        }
      ],
      "name": "updateReputation",
      "outputs": [],
      "stateMutability": "nonpayable",
      "type": "function"
    }
  ],
  "bytecode": "0x6080604052348015600e575f5ffd5b505f60025f6101000a81548173ffffffffffffffffffffffffffffffffffffffff021916908373ffffffffffffffffffffffffffffffffffffffff16021790555061232f8061005c5f395ff3fe608060405234801561000f575f5ffd5b506004361061009c575f3560e01c8063c495fcda11610064578063c495fcda1461012e578063cc08a9661461014c578063ef14440614610168578063fb3551ff14610184578063fd66091e146101b45761009c565b806328a7deb6146100a05780632d2a9585146100bc5780639a4fbf5b146100d8578063b9d9a8f7146100e2578063c3c5a547146100fe575b5f5ffd5b6100ba60048036038101906100b59190611766565b6101ec565b005b6100d660048036038101906100d191906117f2565b6102be565b005b6100e06106a1565b005b6100fc60048036038101906100f791906117f2565b61082c565b005b61011860048036038101906101139190611766565b6109b6565b6040516101259190611857565b60405180910390f35b6101366109d3565b604051610143919061187f565b60405180910390f35b61016660048036038101906101619190611901565b6109f8565b005b610182600480360381019061017d9190611766565b610db6565b005b61019e60048036038101906101999190611766565b6111e7565b6040516101ab9190611b0b565b60405180910390f35b6101ce60048036038101906101c99190611766565b6114f3565b6040516101e399989796959493929190611ba0565b60405180910390f35b5f73ffffffffffffffffffffffffffffffffffffffff1660025f9054906101000a900473ffffffffffffffffffffffffffffffffffffffff1673ffffffffffffffffffffffffffffffffffffffff161461027b576040517f08c379a000000000000000000000000000000000000000000000000000000000815260040161027290611c7c565b60405180910390fd5b8060025f6101000a81548173ffffffffffffffffffffffffffffffffffffffff021916908373ffffffffffffffffffffffffffffffffffffffff16021790555050565b60015f3373ffffffffffffffffffffffffffffffffffffffff1673ffffffffffffffffffffffffffffffffffffffff1681526020019081526020015f205f9054906101000a900460ff161561033f576040517f3a81d6fc00000000000000000000000000000000000000000000000000000000815260040160405180910390fd5b6040518061012001604052803373ffffffffffffffffffffffffffffffffffffffff16815260200183838080601f0160208091040260200160405190810160405280939291908181526020018383808284375f81840152601f19601f8201169050808301925050505050505081526020016001151581526020015f151581526020015f6fffffffffffffffffffffffffffffffff1681526020015f6fffffffffffffffffffffffffffffffff1681526020015f63ffffffff1681526020014267ffffffffffffffff1681526020014267ffffffffffffffff168152505f5f3373ffffffffffffffffffffffffffffffffffffffff1673ffffffffffffffffffffffffffffffffffffffff1681526020019081526020015f205f820151815f015f6101000a81548173ffffffffffffffffffffffffffffffffffffffff021916908373ffffffffffffffffffffffffffffffffffffffff16021790555060208201518160010190816104b09190611ec4565b506040820151816002015f6101000a81548160ff02191690831515021790555060608201518160020160016101000a81548160ff02191690831515021790555060808201518160020160026101000a8154816fffffffffffffffffffffffffffffffff02191690836fffffffffffffffffffffffffffffffff16021790555060a0820151816003015f6101000a8154816fffffffffffffffffffffffffffffffff02191690836fffffffffffffffffffffffffffffffff16021790555060c08201518160030160106101000a81548163ffffffff021916908363ffffffff16021790555060e08201518160030160146101000a81548167ffffffffffffffff021916908367ffffffffffffffff160217905550610100820151816004015f6101000a81548167ffffffffffffffff021916908367ffffffffffffffff1602179055509050506001805f3373ffffffffffffffffffffffffffffffffffffffff1673ffffffffffffffffffffffffffffffffffffffff1681526020019081526020015f205f6101000a81548160ff0219169083151502179055503373ffffffffffffffffffffffffffffffffffffffff167ff2ba0d46b1d1a2989e64c4821ae62c6f556aa2971aa456bc16f84ace2c621b398383425f6040516106959493929190611fcd565b60405180910390a25050565b60015f3373ffffffffffffffffffffffffffffffffffffffff1673ffffffffffffffffffffffffffffffffffffffff1681526020019081526020015f205f9054906101000a900460ff16610721576040517faba4733900000000000000000000000000000000000000000000000000000000815260040160405180910390fd5b5f5f5f3373ffffffffffffffffffffffffffffffffffffffff1673ffffffffffffffffffffffffffffffffffffffff1681526020019081526020015f206002015f6101000a81548160ff021916908315150217905550425f5f3373ffffffffffffffffffffffffffffffffffffffff1673ffffffffffffffffffffffffffffffffffffffff1681526020019081526020015f206004015f6101000a81548167ffffffffffffffff021916908367ffffffffffffffff1602179055503373ffffffffffffffffffffffffffffffffffffffff167fb835d6650cb2980cef8a711c7bc07ec2b58e269d04fc56d9f6d55c2fe1f1f60142604051610822919061200b565b60405180910390a2565b60015f3373ffffffffffffffffffffffffffffffffffffffff1673ffffffffffffffffffffffffffffffffffffffff1681526020019081526020015f205f9054906101000a900460ff166108ac576040517faba4733900000000000000000000000000000000000000000000000000000000815260040160405180910390fd5b81815f5f3373ffffffffffffffffffffffffffffffffffffffff1673ffffffffffffffffffffffffffffffffffffffff1681526020019081526020015f2060010191826108fa92919061202e565b50425f5f3373ffffffffffffffffffffffffffffffffffffffff1673ffffffffffffffffffffffffffffffffffffffff1681526020019081526020015f206004015f6101000a81548167ffffffffffffffff021916908367ffffffffffffffff1602179055503373ffffffffffffffffffffffffffffffffffffffff167fd84cf1564e2b03c7538d4a6185ce026eae339efd4b67ba3038730516591d728b8383426040516109aa939291906120fb565b60405180910390a25050565b6001602052805f5260405f205f915054906101000a900460ff1681565b60025f9054906101000a900473ffffffffffffffffffffffffffffffffffffffff1681565b60025f9054906101000a900473ffffffffffffffffffffffffffffffffffffffff1673ffffffffffffffffffffffffffffffffffffffff163373ffffffffffffffffffffffffffffffffffffffff1614610a7e576040517f6beb250f00000000000000000000000000000000000000000000000000000000815260040160405180910390fd5b60015f8473ffffffffffffffffffffffffffffffffffffffff1673ffffffffffffffffffffffffffffffffffffffff1681526020019081526020015f205f9054906101000a900460ff16610afe576040517faba4733900000000000000000000000000000000000000000000000000000000815260040160405180910390fd5b60018260ff161080610b13575060058260ff16115b15610b4a576040517fd29df2dd00000000000000000000000000000000000000000000000000000000815260040160405180910390fd5b5f5f5f8573ffffffffffffffffffffffffffffffffffffffff1673ffffffffffffffffffffffffffffffffffffffff1681526020019081526020015f2090505f828460ff16610b999190612158565b9050808260020160028282829054906101000a90046fffffffffffffffffffffffffffffffff16610bca9190612194565b92506101000a8154816fffffffffffffffffffffffffffffffff02191690836fffffffffffffffffffffffffffffffff16021790555082826003015f8282829054906101000a90046fffffffffffffffffffffffffffffffff16610c2e9190612194565b92506101000a8154816fffffffffffffffffffffffffffffffff02191690836fffffffffffffffffffffffffffffffff160217905550816003015f9054906101000a90046fffffffffffffffffffffffffffffffff166fffffffffffffffffffffffffffffffff166127108360020160029054906101000a90046fffffffffffffffffffffffffffffffff166fffffffffffffffffffffffffffffffff16610cd691906121d7565b610ce09190612245565b8260030160106101000a81548163ffffffff021916908363ffffffff16021790555042826004015f6101000a81548167ffffffffffffffff021916908367ffffffffffffffff1602179055508473ffffffffffffffffffffffffffffffffffffffff167f84f2b88e65252593e7db6361d3c05bf88f12877062a994c086ba3119334a4f928360030160109054906101000a900463ffffffff16846003015f9054906101000a90046fffffffffffffffffffffffffffffffff16604051610da7929190612275565b60405180910390a25050505050565b60025f9054906101000a900473ffffffffffffffffffffffffffffffffffffffff1673ffffffffffffffffffffffffffffffffffffffff163373ffffffffffffffffffffffffffffffffffffffff1614610e3c576040517f6beb250f00000000000000000000000000000000000000000000000000000000815260040160405180910390fd5b60015f8273ffffffffffffffffffffffffffffffffffffffff1673ffffffffffffffffffffffffffffffffffffffff1681526020019081526020015f205f9054906101000a900460ff1615610ebd576040517f3a81d6fc00000000000000000000000000000000000000000000000000000000815260040160405180910390fd5b6040518061012001604052808273ffffffffffffffffffffffffffffffffffffffff16815260200160405180602001604052805f81525081526020016001151581526020016001151581526020015f6fffffffffffffffffffffffffffffffff1681526020015f6fffffffffffffffffffffffffffffffff1681526020015f63ffffffff1681526020014267ffffffffffffffff1681526020014267ffffffffffffffff168152505f5f8373ffffffffffffffffffffffffffffffffffffffff1673ffffffffffffffffffffffffffffffffffffffff1681526020019081526020015f205f820151815f015f6101000a81548173ffffffffffffffffffffffffffffffffffffffff021916908373ffffffffffffffffffffffffffffffffffffffff1602179055506020820151816001019081610ffa9190611ec4565b506040820151816002015f6101000a81548160ff02191690831515021790555060608201518160020160016101000a81548160ff02191690831515021790555060808201518160020160026101000a8154816fffffffffffffffffffffffffffffffff02191690836fffffffffffffffffffffffffffffffff16021790555060a0820151816003015f6101000a8154816fffffffffffffffffffffffffffffffff02191690836fffffffffffffffffffffffffffffffff16021790555060c08201518160030160106101000a81548163ffffffff021916908363ffffffff16021790555060e08201518160030160146101000a81548167ffffffffffffffff021916908367ffffffffffffffff160217905550610100820151816004015f6101000a81548167ffffffffffffffff021916908367ffffffffffffffff1602179055509050506001805f8373ffffffffffffffffffffffffffffffffffffffff1673ffffffffffffffffffffffffffffffffffffffff1681526020019081526020015f205f6101000a81548160ff0219169083151502179055508073ffffffffffffffffffffffffffffffffffffffff167ff2ba0d46b1d1a2989e64c4821ae62c6f556aa2971aa456bc16f84ace2c621b394260016040516111dc9291906122bf565b60405180910390a250565b6111ef611668565b60015f8373ffffffffffffffffffffffffffffffffffffffff1673ffffffffffffffffffffffffffffffffffffffff1681526020019081526020015f205f9054906101000a900460ff1661126f576040517faba4733900000000000000000000000000000000000000000000000000000000815260040160405180910390fd5b5f5f8373ffffffffffffffffffffffffffffffffffffffff1673ffffffffffffffffffffffffffffffffffffffff1681526020019081526020015f20604051806101200160405290815f82015f9054906101000a900473ffffffffffffffffffffffffffffffffffffffff1673ffffffffffffffffffffffffffffffffffffffff1673ffffffffffffffffffffffffffffffffffffffff16815260200160018201805461131b90611cf4565b80601f016020809104026020016040519081016040528092919081815260200182805461134790611cf4565b80156113925780601f1061136957610100808354040283529160200191611392565b820191905f5260205f20905b81548152906001019060200180831161137557829003601f168201915b50505050508152602001600282015f9054906101000a900460ff161515151581526020016002820160019054906101000a900460ff161515151581526020016002820160029054906101000a90046fffffffffffffffffffffffffffffffff166fffffffffffffffffffffffffffffffff166fffffffffffffffffffffffffffffffff168152602001600382015f9054906101000a90046fffffffffffffffffffffffffffffffff166fffffffffffffffffffffffffffffffff166fffffffffffffffffffffffffffffffff1681526020016003820160109054906101000a900463ffffffff1663ffffffff1663ffffffff1681526020016003820160149054906101000a900467ffffffffffffffff1667ffffffffffffffff1667ffffffffffffffff168152602001600482015f9054906101000a900467ffffffffffffffff1667ffffffffffffffff1667ffffffffffffffff16815250509050919050565b5f602052805f5260405f205f91509050805f015f9054906101000a900473ffffffffffffffffffffffffffffffffffffffff169080600101805461153690611cf4565b80601f016020809104026020016040519081016040528092919081815260200182805461156290611cf4565b80156115ad5780601f10611584576101008083540402835291602001916115ad565b820191905f5260205f20905b81548152906001019060200180831161159057829003601f168201915b505050505090806002015f9054906101000a900460ff16908060020160019054906101000a900460ff16908060020160029054906101000a90046fffffffffffffffffffffffffffffffff1690806003015f9054906101000a90046fffffffffffffffffffffffffffffffff16908060030160109054906101000a900463ffffffff16908060030160149054906101000a900467ffffffffffffffff1690806004015f9054906101000a900467ffffffffffffffff16905089565b6040518061012001604052805f73ffffffffffffffffffffffffffffffffffffffff168152602001606081526020015f151581526020015f151581526020015f6fffffffffffffffffffffffffffffffff1681526020015f6fffffffffffffffffffffffffffffffff1681526020015f63ffffffff1681526020015f67ffffffffffffffff1681526020015f67ffffffffffffffff1681525090565b5f5ffd5b5f5ffd5b5f73ffffffffffffffffffffffffffffffffffffffff82169050919050565b5f6117358261170c565b9050919050565b6117458161172b565b811461174f575f5ffd5b50565b5f813590506117608161173c565b92915050565b5f6020828403121561177b5761177a611704565b5b5f61178884828501611752565b91505092915050565b5f5ffd5b5f5ffd5b5f5ffd5b5f5f83601f8401126117b2576117b1611791565b5b8235905067ffffffffffffffff8111156117cf576117ce611795565b5b6020830191508360018202830111156117eb576117ea611799565b5b9250929050565b5f5f6020838503121561180857611807611704565b5b5f83013567ffffffffffffffff81111561182557611824611708565b5b6118318582860161179d565b92509250509250929050565b5f8115159050919050565b6118518161183d565b82525050565b5f60208201905061186a5f830184611848565b92915050565b6118798161172b565b82525050565b5f6020820190506118925f830184611870565b92915050565b5f60ff82169050919050565b6118ad81611898565b81146118b7575f5ffd5b50565b5f813590506118c8816118a4565b92915050565b5f819050919050565b6118e0816118ce565b81146118ea575f5ffd5b50565b5f813590506118fb816118d7565b92915050565b5f5f5f6060848603121561191857611917611704565b5b5f61192586828701611752565b9350506020611936868287016118ba565b9250506040611947868287016118ed565b9150509250925092565b61195a8161172b565b82525050565b5f81519050919050565b5f82825260208201905092915050565b8281835e5f83830152505050565b5f601f19601f8301169050919050565b5f6119a282611960565b6119ac818561196a565b93506119bc81856020860161197a565b6119c581611988565b840191505092915050565b6119d98161183d565b82525050565b5f6fffffffffffffffffffffffffffffffff82169050919050565b611a03816119df565b82525050565b5f63ffffffff82169050919050565b611a2181611a09565b82525050565b5f67ffffffffffffffff82169050919050565b611a4381611a27565b82525050565b5f61012083015f830151611a5f5f860182611951565b5060208301518482036020860152611a778282611998565b9150506040830151611a8c60408601826119d0565b506060830151611a9f60608601826119d0565b506080830151611ab260808601826119fa565b5060a0830151611ac560a08601826119fa565b5060c0830151611ad860c0860182611a18565b5060e0830151611aeb60e0860182611a3a565b50610100830151611b00610100860182611a3a565b508091505092915050565b5f6020820190508181035f830152611b238184611a49565b905092915050565b5f82825260208201905092915050565b5f611b4582611960565b611b4f8185611b2b565b9350611b5f81856020860161197a565b611b6881611988565b840191505092915050565b611b7c816119df565b82525050565b611b8b81611a09565b82525050565b611b9a81611a27565b82525050565b5f61012082019050611bb45f83018c611870565b8181036020830152611bc6818b611b3b565b9050611bd5604083018a611848565b611be26060830189611848565b611bef6080830188611b73565b611bfc60a0830187611b73565b611c0960c0830186611b82565b611c1660e0830185611b91565b611c24610100830184611b91565b9a9950505050505050505050565b7f616c7265616479207365740000000000000000000000000000000000000000005f82015250565b5f611c66600b83611b2b565b9150611c7182611c32565b602082019050919050565b5f6020820190508181035f830152611c9381611c5a565b9050919050565b7f4e487b71000000000000000000000000000000000000000000000000000000005f52604160045260245ffd5b7f4e487b71000000000000000000000000000000000000000000000000000000005f52602260045260245ffd5b5f6002820490506001821680611d0b57607f821691505b602082108103611d1e57611d1d611cc7565b5b50919050565b5f819050815f5260205f209050919050565b5f6020601f8301049050919050565b5f82821b905092915050565b5f60088302611d807fffffffffffffffffffffffffffffffffffffffffffffffffffffffffffffffff82611d45565b611d8a8683611d45565b95508019841693508086168417925050509392505050565b5f819050919050565b5f611dc5611dc0611dbb846118ce565b611da2565b6118ce565b9050919050565b5f819050919050565b611dde83611dab565b611df2611dea82611dcc565b848454611d51565b825550505050565b5f5f905090565b611e09611dfa565b611e14818484611dd5565b505050565b5b81811015611e3757611e2c5f82611e01565b600181019050611e1a565b5050565b601f821115611e7c57611e4d81611d24565b611e5684611d36565b81016020851015611e65578190505b611e79611e7185611d36565b830182611e19565b50505b505050565b5f82821c905092915050565b5f611e9c5f1984600802611e81565b1980831691505092915050565b5f611eb48383611e8d565b9150826002028217905092915050565b611ecd82611960565b67ffffffffffffffff811115611ee657611ee5611c9a565b5b611ef08254611cf4565b611efb828285611e3b565b5f60209050601f831160018114611f2c575f8415611f1a578287015190505b611f248582611ea9565b865550611f8b565b601f198416611f3a86611d24565b5f5b82811015611f6157848901518255600182019150602085019450602081019050611f3c565b86831015611f7e5784890151611f7a601f891682611e8d565b8355505b6001600288020188555050505b505050505050565b828183375f83830152505050565b5f611fac8385611b2b565b9350611fb9838584611f93565b611fc283611988565b840190509392505050565b5f6060820190508181035f830152611fe6818688611fa1565b9050611ff56020830185611b91565b6120026040830184611848565b95945050505050565b5f60208201905061201e5f830184611b91565b92915050565b5f82905092915050565b6120388383612024565b67ffffffffffffffff81111561205157612050611c9a565b5b61205b8254611cf4565b612066828285611e3b565b5f601f831160018114612093575f8415612081578287013590505b61208b8582611ea9565b8655506120f2565b601f1984166120a186611d24565b5f5b828110156120c8578489013582556001820191506020850194506020810190506120a3565b868310156120e557848901356120e1601f891682611e8d565b8355505b6001600288020188555050505b50505050505050565b5f6040820190508181035f830152612114818587611fa1565b90506121236020830184611b91565b949350505050565b7f4e487b71000000000000000000000000000000000000000000000000000000005f52601160045260245ffd5b5f612162826119df565b915061216d836119df565b925082820261217b816119df565b915080821461218d5761218c61212b565b5b5092915050565b5f61219e826119df565b91506121a9836119df565b925082820190506fffffffffffffffffffffffffffffffff8111156121d1576121d061212b565b5b92915050565b5f6121e1826118ce565b91506121ec836118ce565b92508282026121fa816118ce565b915082820484148315176122115761221061212b565b5b5092915050565b7f4e487b71000000000000000000000000000000000000000000000000000000005f52601260045260245ffd5b5f61224f826118ce565b915061225a836118ce565b92508261226a57612269612218565b5b828204905092915050565b5f6040820190506122885f830185611b82565b6122956020830184611b73565b9392505050565b50565b5f6122aa5f83611b2b565b91506122b58261229c565b5f82019050919050565b5f6060820190508181035f8301526122d68161229f565b90506122e56020830185611b91565b6122f26040830184611848565b939250505056fea2646970667358221220d4bc06214accb5cfa6293ff5b3c88e24846f0c7748569ccbf7b845c48fa58a4d64736f6c634300081c0033",
  "linkReferences": {},
  "deployedLinkReferences": {}
}