{
  "_format": "hh-sol-artifact-1",
  "contractName": "X402Payment",
  "sourceName": "contracts/X402Payment.sol",
  "abi": [
    {
      "inputs": [
        {
          "internalType": "address",
          "name": "_facilitator",
          "type": "address"
        }
      ],
      "stateMutability": "nonpayable",
      "type": "constructor"
    },
    {
      "inputs": [],
      "name": "AlreadyProcessed",
      "type": "error"
    },
    {
      "inputs": [],
      "name": "OnlyFacilitator",
      "type": "error"
    },
    {
      "inputs": [],
      "name": "PaymentNotFound",
      "type": "error"
    },
    {
      "anonymous": false,
      "inputs": [
        {
          "indexed": true,
          "internalType": "bytes32",
          "name": "paymentId",
          "type": "bytes32"
        },
        {
          "indexed": true,
          "internalType": "address",
          "name": "from",
          "type": "address"
        },
        {
          "indexed": true,
          "internalType": "address",
          "name": "to",
          "type": "address"
        },
        {
          "indexed": false,
          "internalType": "uint256",
          "name": "amount",
          "type": "uint256"
        },
        {
          "indexed": false,
          "internalType": "bytes32",
          "name": "jobId",
          "type": "bytes32"
        },
        {
          "indexed": false,
          "internalType": "uint64",
          "name": "timestamp",
          "type": "uint64"
        }
      ],
      "name": "PaymentProcessed",
      "type": "event"
    },
    {
      "inputs": [],
      "name": "facilitator",
      "outputs": [
        {
          "internalType": "address",
          "name": "",
          "type": "address"
        }
      ],
      "stateMutability": "view",
      "type": "function"
    },
    {
      "inputs": [
        {
          "internalType": "bytes32",
          "name": "paymentId",
          "type": "bytes32"
        }
      ],
      "name": "getPayment",
      "outputs": [
        {
          "components": [
            {
              "internalType": "bytes32",
              "name": "paymentId",
              "type": "bytes32"
            },
            {
              "internalType": "address",
              "name": "from",
              "type": "address"
            },
            {
              "internalType": "address",
              "name": "to",
              "type": "address"
            },
            {
              "internalType": "uint256",
              "name": "amount",
              "type": "uint256"
            },
            {
              "internalType": "bytes32",
              "name": "jobId",
              "type": "bytes32"
            },
            {
              "internalType": "uint64",
              "name": "timestamp",
              "type": "uint64"
            },
            {
              "internalType": "bool",
              "name": "verified",
              "type": "bool"
            }
          ],
          "internalType": "struct X402Payment.Payment",
          "name": "",
          "type": "tuple"
        }
      ],
      "stateMutability": "view",
      "type": "function"
    },
    {
      "inputs": [
        {
          "internalType": "bytes32",
          "name": "",
          "type": "bytes32"
        }
      ],
      "name": "paymentProcessed",
      "outputs": [
        {
          "internalType": "bool",
          "name": "",
          "type": "bool"
        }
      ],
      "stateMutability": "view",
      "type": "function"
    },
    {
      "inputs": [
        {
          "internalType": "bytes32",
          "name": "",
          "type": "bytes32"
        }
      ],
      "name": "payments",
      "outputs": [
        {
          "internalType": "bytes32",
          "name": "paymentId",
          "type": "bytes32"
        },
        {
          "internalType": "address",
          "name": "from",
          "type": "address"
        },
        {
          "internalType": "address",
          "name": "to",
          "type": "address"
        },
        {
          "internalType": "uint256",
          "name": "amount",
          "type": "uint256"
        },
        {
          "internalType": "bytes32",
          "name": "jobId",
          "type": "bytes32"
        },
        {
          "internalType": "uint64",
          "name": "timestamp",
          "type": "uint64"
        },
        {
          "internalType": "bool",
          "name": "verified",
          "type": "bool"
        }
      ],
      "stateMutability": "view",
      "type": "function"
    },
    {
      "inputs": [
        {
          "internalType": "bytes32",
          "name": "paymentId",
          "type": "bytes32"
        },
        {
          "internalType": "address",
          "name": "from",
          "type": "address"
        },
        {
          "internalType": "address",
          "name": "to",
          "type": "address"
        },
        {
          "internalType": "uint256",
          "name": "amount",
          "type": "uint256"
        },
        {
          "internalType": "bytes32",
          "name": "jobId",
          "type": "bytes32"
        }
      ],
      "name": "processPayment",
      "outputs": [],
      "stateMutability": "nonpayable",
      "type": "function"
    },
    {
      "inputs": [
        {
          "internalType": "bytes32",
          "name": "paymentId",
          "type": "bytes32"
        }
      ],
      "name": "verifyPayment",
      "outputs": [
        {
          "internalType": "bool",
          "name": "",
          "type": "bool"
        }
      ],
      "stateMutability": "view",
      "type": "function"
    }
  ],
  "bytecode": "0x608060405234801561000f575f5ffd5b50604051610c28380380610c28833981810160405281019061003191906100d5565b8060025f6101000a81548173ffffffffffffffffffffffffffffffffffffffff021916908373ffffffffffffffffffffffffffffffffffffffff16021790555050610100565b5f5ffd5b5f73ffffffffffffffffffffffffffffffffffffffff82169050919050565b5f6100a48261007b565b9050919050565b6100b48161009a565b81146100be575f5ffd5b50565b5f815190506100cf816100ab565b92915050565b5f602082840312156100ea576100e9610077565b5b5f6100f7848285016100c1565b91505092915050565b610b1b8061010d5f395ff3fe608060405234801561000f575f5ffd5b5060043610610060575f3560e01c80630716326d1461006457806348e689501461009a578063762c6916146100ca5780637797cee4146100e65780639641413814610104578063e66eefc814610134575b5f5ffd5b61007e60048036038101906100799190610789565b610164565b6040516100919796959493929190610856565b60405180910390f35b6100b460048036038101906100af9190610789565b6101ff565b6040516100c191906108c3565b60405180910390f35b6100e460048036038101906100df9190610930565b610228565b005b6100ee610511565b6040516100fb91906109a7565b60405180910390f35b61011e60048036038101906101199190610789565b610536565b60405161012b91906108c3565b60405180910390f35b61014e60048036038101906101499190610789565b610553565b60405161015b9190610a97565b60405180910390f35b5f602052805f5260405f205f91509050805f015490806001015f9054906101000a900473ffffffffffffffffffffffffffffffffffffffff1690806002015f9054906101000a900473ffffffffffffffffffffffffffffffffffffffff1690806003015490806004015490806005015f9054906101000a900467ffffffffffffffff16908060050160089054906101000a900460ff16905087565b5f5f5f8381526020019081526020015f2060050160089054906101000a900460ff169050919050565b60025f9054906101000a900473ffffffffffffffffffffffffffffffffffffffff1673ffffffffffffffffffffffffffffffffffffffff163373ffffffffffffffffffffffffffffffffffffffff16146102ae576040517f4e0ce28200000000000000000000000000000000000000000000000000000000815260040160405180910390fd5b60015f8681526020019081526020015f205f9054906101000a900460ff1615610303576040517f57eee76600000000000000000000000000000000000000000000000000000000815260040160405180910390fd5b6040518060e001604052808681526020018573ffffffffffffffffffffffffffffffffffffffff1681526020018473ffffffffffffffffffffffffffffffffffffffff1681526020018381526020018281526020014267ffffffffffffffff168152602001600115158152505f5f8781526020019081526020015f205f820151815f01556020820151816001015f6101000a81548173ffffffffffffffffffffffffffffffffffffffff021916908373ffffffffffffffffffffffffffffffffffffffff1602179055506040820151816002015f6101000a81548173ffffffffffffffffffffffffffffffffffffffff021916908373ffffffffffffffffffffffffffffffffffffffff160217905550606082015181600301556080820151816004015560a0820151816005015f6101000a81548167ffffffffffffffff021916908367ffffffffffffffff16021790555060c08201518160050160086101000a81548160ff0219169083151502179055509050506001805f8781526020019081526020015f205f6101000a81548160ff0219169083151502179055508273ffffffffffffffffffffffffffffffffffffffff168473ffffffffffffffffffffffffffffffffffffffff16867fb8aa81d8f541f3f7643bc2f40dc380e7b1431615ce82effd6af25339f84a271285854260405161050293929190610ab0565b60405180910390a45050505050565b60025f9054906101000a900473ffffffffffffffffffffffffffffffffffffffff1681565b6001602052805f5260405f205f915054906101000a900460ff1681565b61055b6106e4565b60015f8381526020019081526020015f205f9054906101000a900460ff166105af576040517fbefcc57b00000000000000000000000000000000000000000000000000000000815260040160405180910390fd5b5f5f8381526020019081526020015f206040518060e00160405290815f8201548152602001600182015f9054906101000a900473ffffffffffffffffffffffffffffffffffffffff1673ffffffffffffffffffffffffffffffffffffffff1673ffffffffffffffffffffffffffffffffffffffff168152602001600282015f9054906101000a900473ffffffffffffffffffffffffffffffffffffffff1673ffffffffffffffffffffffffffffffffffffffff1673ffffffffffffffffffffffffffffffffffffffff1681526020016003820154815260200160048201548152602001600582015f9054906101000a900467ffffffffffffffff1667ffffffffffffffff1667ffffffffffffffff1681526020016005820160089054906101000a900460ff1615151515815250509050919050565b6040518060e001604052805f81526020015f73ffffffffffffffffffffffffffffffffffffffff1681526020015f73ffffffffffffffffffffffffffffffffffffffff1681526020015f81526020015f81526020015f67ffffffffffffffff1681526020015f151581525090565b5f5ffd5b5f819050919050565b61076881610756565b8114610772575f5ffd5b50565b5f813590506107838161075f565b92915050565b5f6020828403121561079e5761079d610752565b5b5f6107ab84828501610775565b91505092915050565b6107bd81610756565b82525050565b5f73ffffffffffffffffffffffffffffffffffffffff82169050919050565b5f6107ec826107c3565b9050919050565b6107fc816107e2565b82525050565b5f819050919050565b61081481610802565b82525050565b5f67ffffffffffffffff82169050919050565b6108368161081a565b82525050565b5f8115159050919050565b6108508161083c565b82525050565b5f60e0820190506108695f83018a6107b4565b61087660208301896107f3565b61088360408301886107f3565b610890606083018761080b565b61089d60808301866107b4565b6108aa60a083018561082d565b6108b760c0830184610847565b98975050505050505050565b5f6020820190506108d65f830184610847565b92915050565b6108e5816107e2565b81146108ef575f5ffd5b50565b5f81359050610900816108dc565b92915050565b61090f81610802565b8114610919575f5ffd5b50565b5f8135905061092a81610906565b92915050565b5f5f5f5f5f60a0868803121561094957610948610752565b5b5f61095688828901610775565b9550506020610967888289016108f2565b9450506040610978888289016108f2565b93505060606109898882890161091c565b925050608061099a88828901610775565b9150509295509295909350565b5f6020820190506109ba5f8301846107f3565b92915050565b6109c981610756565b82525050565b6109d8816107e2565b82525050565b6109e781610802565b82525050565b6109f68161081a565b82525050565b610a058161083c565b82525050565b60e082015f820151610a1f5f8501826109c0565b506020820151610a3260208501826109cf565b506040820151610a4560408501826109cf565b506060820151610a5860608501826109de565b506080820151610a6b60808501826109c0565b5060a0820151610a7e60a08501826109ed565b5060c0820151610a9160c08501826109fc565b50505050565b5f60e082019050610aaa5f830184610a0b565b92915050565b5f606082019050610ac35f83018661080b565b610ad060208301856107b4565b610add604083018461082d565b94935050505056fea2646970667358221220fcbece346d7fa2310819623854663c1eb44eaf86b2f9388a057d5111a0930b2464736f6c634300081c0033",
  "linkReferences": {},
  "deployedLinkReferences": {}
}