{
  "_format": "hh-sol-artifact-1",
  "contractName": "JobMarket",
  "sourceName": "contracts/JobMarket.sol",
  "abi": [
    {
      "inputs": [
        {
          "internalType": "address",
          "name": "_agentRegistry",
          "type": "address"
        },
        {
          "internalType": "address",
          "name": "_escrow",
          "type": "address"
        }
      ],
      "stateMutability": "nonpayable",
      "type": "constructor"
    },
    {
      "inputs": [],
      "name": "AlreadyRated",
      "type": "error"
    },
    {
      "inputs": [],
      "name": "InvalidJob",
      "type": "error"
    },
    {
      "inputs": [],
      "name": "NotAgent",
      "type": "error"
    },
    {
      "inputs": [],
      "name": "NotClient",
      "type": "error"
    },
    {
      "inputs": [],
      "name": "NotRegistered",
      "type": "error"
    },
    {
      "inputs": [],
      "name": "WrongStatus",
      "type": "error"
    },
    {
      "anonymous": false,
      "inputs": [
        {
          "indexed": true,
          "internalType": "bytes32",
          "name": "jobId",
          "type": "bytes32"
        },
        {
          "indexed": true,
          "internalType": "address",
          "name": "agent",
          "type": "address"
        },
        {
          "indexed": false,
          "internalType": "uint8",
          "name": "rating",
          "type": "uint8"
        }
      ],
      "name": "FeedbackSubmitted",
      "type": "event"
    },
    {
      "anonymous": false,
      "inputs": [
        {
          "indexed": true,
          "internalType": "bytes32",
          "name": "jobId",
          "type": "bytes32"
        },
        {
          "indexed": true,
          "internalType": "address",
          "name": "agent",
          "type": "address"
        }
      ],
      "name": "JobAccepted",
      "type": "event"
    },
    {
      "anonymous": false,
      "inputs": [
        {
          "indexed": true,
          "internalType": "bytes32",
          "name": "jobId",
          "type": "bytes32"
        }
      ],
      "name": "JobCancelled",
      "type": "event"
    },
    {
      "anonymous": false,
      "inputs": [
        {
          "indexed": true,
          "internalType": "bytes32",
          "name": "jobId",
          "type": "bytes32"
        }
      ],
      "name": "JobCompleted",
      "type": "event"
    },
    {
      "anonymous": false,
      "inputs": [
        {
          "indexed": true,
          "internalType": "bytes32",
          "name": "jobId",
          "type": "bytes32"
        }
      ],
      "name": "JobDisputed",
      "type": "event"
    },
    {
      "anonymous": false,
      "inputs": [
        {
          "indexed": true,
          "internalType": "bytes32",
          "name": "jobId",
          "type": "bytes32"
        },
        {
          "indexed": true,
          "internalType": "address",
          "name": "client",
          "type": "address"
        },
        {
          "indexed": false,
          "internalType": "string",
          "name": "taskDescription",
          "type": "string"
        },
        {
          "indexed": false,
          "internalType": "uint256",
          "name": "payment",
          "type": "uint256"
        }
      ],
      "name": "JobPosted",
      "type": "event"
    },
    {
      "inputs": [
        {
          "internalType": "bytes32",
          "name": "jobId",
          "type": "bytes32"
        }
      ],
      "name": "acceptJob",
      "outputs": [],
      "stateMutability": "nonpayable",
      "type": "function"
    },
    {
      "inputs": [],
      "name": "agentRegistry",
      "outputs": [
        {
          "internalType": "contract AgentRegistry",
          "name": "",
          "type": "address"
        }
      ],
      "stateMutability": "view",
      "type": "function"
    },
    {
      "inputs": [
        {
          "internalType": "bytes32",
          "name": "jobId",
          "type": "bytes32"
        }
      ],
      "name": "cancelJob",
      "outputs": [],
      "stateMutability": "nonpayable",
      "type": "function"
    },
    {
      "inputs": [
        {
          "internalType": "bytes32",
          "name": "jobId",
          "type": "bytes32"
        }
      ],
      "name": "completeJob",
      "outputs": [],
      "stateMutability": "nonpayable",
      "type": "function"
    },
    {
      "inputs": [
        {
          "internalType": "bytes32",
          "name": "jobId",
          "type": "bytes32"
        }
      ],
      "name": "disputeJob",
      "outputs": [],
      "stateMutability": "nonpayable",
      "type": "function"
    },
    {
      "inputs": [],
      "name": "escrow",
      "outputs": [
        {
          "internalType": "contract Escrow",
          "name": "",
          "type": "address"
        }
      ],
      "stateMutability": "view",
      "type": "function"
    },
    {
      "inputs": [
        {
          "internalType": "bytes32",
          "name": "",
          "type": "bytes32"
        }
      ],
      "name": "feedbackSubmitted",
      "outputs": [
        {
          "internalType": "bool",
          "name": "",
          "type": "bool"
        }
      ],
      "stateMutability": "view",
      "type": "function"
    },
    {
      "inputs": [
        {
          "internalType": "bytes32",
          "name": "jobId",
          "type": "bytes32"
        }
      ],
      "name": "getJob",
      "outputs": [
        {
          "internalType": "address",
          "name": "client",
          "type": "address"
        },
        {
          "internalType": "address",
          "name": "agent",
          "type": "address"
        },
        {
          "internalType": "string",
          "name": "taskDescription",
          "type": "string"
        },
        {
          "internalType": "uint256",
          "name": "payment",
          "type": "uint256"
        },
        {
          "internalType": "enum JobMarket.JobStatus",
          "name": "status",
          "type": "uint8"
        }
      ],
      "stateMutability": "view",
      "type": "function"
    },
    {
      "inputs": [],
      "name": "getJobCount",
      "outputs": [
        {
          "internalType": "uint256",
          "name": "",
          "type": "uint256"
        }
      ],
      "stateMutability": "view",
      "type": "function"
    },
    {
      "inputs": [
        {
          "internalType": "uint256",
          "name": "index",
          "type": "uint256"
        }
      ],
      "name": "getJobIdAt",
      "outputs": [
        {
          "internalType": "bytes32",
          "name": "",
          "type": "bytes32"
        }
      ],
      "stateMutability": "view",
      "type": "function"
    },
    {
      "inputs": [
        {
          "internalType": "uint256",
          "name": "",
          "type": "uint256"
        }
      ],
      "name": "jobIds",
      "outputs": [
        {
          "internalType": "bytes32",
          "name": "",
          "type": "bytes32"
        }
      ],
      "stateMutability": "view",
      "type": "function"
    },
    {
      "inputs": [
        {
          "internalType": "bytes32",
          "name": "",
          "type": "bytes32"
        }
      ],
      "name": "jobs",
      "outputs": [
        {
          "internalType": "bytes32",
          "name": "jobId",
          "type": "bytes32"
        },
        {
          "internalType": "address",
          "name": "client",
          "type": "address"
        },
        {
          "internalType": "address",
          "name": "agent",
          "type": "address"
        },
        {
          "internalType": "string",
          "name": "taskDescription",
          "type": "string"
        },
        {
          "internalType": "uint256",
          "name": "payment",
          "type": "uint256"
        },
        {
          "internalType": "enum JobMarket.JobStatus",
          "name": "status",
          "type": "uint8"
        }
      ],
      "stateMutability": "view",
      "type": "function"
    },
    {
      "inputs": [],
      "name": "nonce",
      "outputs": [
        {
          "internalType": "uint256",
          "name": "",
          "type": "uint256"
        }
      ],
      "stateMutability": "view",
      "type": "function"
    },
    {
      "inputs": [
        {
          "internalType": "string",
          "name": "taskDescription",
          "type": "string"
        },
        {
          "internalType": "uint256",
          "name": "payment",
          "type": "uint256"
        }
      ],
      "name": "postJob",
      "outputs": [],
      "stateMutability": "payable",
      "type": "function"
    },
    {
      "inputs": [
        {
          "internalType": "bytes32",
          "name": "jobId",
          "type": "bytes32"
        },
        {
          "internalType": "uint8",
          "name": "rating",
          "type": "uint8"
        }
      ],
      "name": "submitFeedback",
      "outputs": [],
      "stateMutability": "nonpayable",
      "type": "function"
    }
  ],
  "bytecode": "0x608060405234801561000f575f5ffd5b5060405161254538038061254583398181016040528101906100319190610115565b815f5f6101000a81548173ffffffffffffffffffffffffffffffffffffffff021916908373ffffffffffffffffffffffffffffffffffffffff1602179055508060015f6101000a81548173ffffffffffffffffffffffffffffffffffffffff021916908373ffffffffffffffffffffffffffffffffffffffff1602179055505050610153565b5f5ffd5b5f73ffffffffffffffffffffffffffffffffffffffff82169050919050565b5f6100e4826100bb565b9050919050565b6100f4816100da565b81146100fe575f5ffd5b50565b5f8151905061010f816100eb565b92915050565b5f5f6040838503121561012b5761012a6100b7565b5b5f61013885828601610101565b925050602061014985828601610101565b9150509250929050565b6123e5806101605f395ff3fe6080604052600436106100e7575f3560e01c8063991e013911610089578063ba3f544311610058578063ba3f5443146102fe578063e2fdcc1714610326578063eb9a4e9314610350578063f729cf0d1461036c576100e7565b8063991e01391461025a578063affed0e014610282578063b02b4a2f146102ac578063b8948790146102d6576100e7565b80634abff05a116100c55780634abff05a146101925780635fae1450146101ba5780636465cfc4146101e25780636942f7b21461021e576100e7565b80630d1cfcae146100eb57806338ed7cfc146101155780634162cc8814610156575b5f5ffd5b3480156100f6575f5ffd5b506100ff6103ac565b60405161010c9190611888565b60405180910390f35b348015610120575f5ffd5b5061013b600480360381019061013691906118dc565b6103d0565b60405161014d96959493929190611a31565b60405180910390f35b348015610161575f5ffd5b5061017c60048036038101906101779190611ac1565b6104d8565b6040516101899190611aec565b60405180910390f35b34801561019d575f5ffd5b506101b860048036038101906101b39190611b3b565b6104f8565b005b3480156101c5575f5ffd5b506101e060048036038101906101db91906118dc565b6108ff565b005b3480156101ed575f5ffd5b50610208600480360381019061020391906118dc565b610aec565b6040516102159190611b93565b60405180910390f35b348015610229575f5ffd5b50610244600480360381019061023f9190611ac1565b610b09565b6040516102519190611aec565b60405180910390f35b348015610265575f5ffd5b50610280600480360381019061027b91906118dc565b610b2e565b005b34801561028d575f5ffd5b50610296610da4565b6040516102a39190611bac565b60405180910390f35b3480156102b7575f5ffd5b506102c0610daa565b6040516102cd9190611bac565b60405180910390f35b3480156102e1575f5ffd5b506102fc60048036038101906102f791906118dc565b610db6565b005b348015610309575f5ffd5b50610324600480360381019061031f91906118dc565b6110cc565b005b348015610331575f5ffd5b5061033a6112ba565b6040516103479190611be5565b60405180910390f35b61036a60048036038101906103659190611c5f565b6112df565b005b348015610377575f5ffd5b50610392600480360381019061038d91906118dc565b6116f4565b6040516103a3959493929190611cbc565b60405180910390f35b5f5f9054906101000a900473ffffffffffffffffffffffffffffffffffffffff1681565b6002602052805f5260405f205f91509050805f015490806001015f9054906101000a900473ffffffffffffffffffffffffffffffffffffffff1690806002015f9054906101000a900473ffffffffffffffffffffffffffffffffffffffff169080600301805461043f90611d41565b80601f016020809104026020016040519081016040528092919081815260200182805461046b90611d41565b80156104b65780601f1061048d576101008083540402835291602001916104b6565b820191905f5260205f20905b81548152906001019060200180831161049957829003601f168201915b505050505090806004015490806005015f9054906101000a900460ff16905086565b600481815481106104e7575f80fd5b905f5260205f20015f915090505481565b5f60025f8481526020019081526020015f2090505f73ffffffffffffffffffffffffffffffffffffffff16816001015f9054906101000a900473ffffffffffffffffffffffffffffffffffffffff1673ffffffffffffffffffffffffffffffffffffffff1603610594576040517f71c8f46000000000000000000000000000000000000000000000000000000000815260040160405180910390fd5b600260048111156105a8576105a76119be565b5b816005015f9054906101000a900460ff1660048111156105cb576105ca6119be565b5b14610602576040517f8e78f0cb00000000000000000000000000000000000000000000000000000000815260040160405180910390fd5b3373ffffffffffffffffffffffffffffffffffffffff16816001015f9054906101000a900473ffffffffffffffffffffffffffffffffffffffff1673ffffffffffffffffffffffffffffffffffffffff161461068a576040517f20dbc87400000000000000000000000000000000000000000000000000000000815260040160405180910390fd5b60035f8481526020019081526020015f205f9054906101000a900460ff16156106df576040517f44a5974800000000000000000000000000000000000000000000000000000000815260040160405180910390fd5b60648260ff161115610726576040517f08c379a000000000000000000000000000000000000000000000000000000000815260040161071d90611dbb565b60405180910390fd5b5f73ffffffffffffffffffffffffffffffffffffffff16816002015f9054906101000a900473ffffffffffffffffffffffffffffffffffffffff1673ffffffffffffffffffffffffffffffffffffffff16036107ae576040517f71c8f46000000000000000000000000000000000000000000000000000000000815260040160405180910390fd5b600160035f8581526020019081526020015f205f6101000a81548160ff0219169083151502179055505f5f9054906101000a900473ffffffffffffffffffffffffffffffffffffffff1673ffffffffffffffffffffffffffffffffffffffff1663cc08a966826002015f9054906101000a900473ffffffffffffffffffffffffffffffffffffffff168484600401546040518463ffffffff1660e01b815260040161085b93929190611de8565b5f604051808303815f87803b158015610872575f5ffd5b505af1158015610884573d5f5f3e3d5ffd5b50505050806002015f9054906101000a900473ffffffffffffffffffffffffffffffffffffffff1673ffffffffffffffffffffffffffffffffffffffff16837fbdf54d1f91a30ef3089b6d102217f85ca1495ddd65241e58197c1e7221d0ad5b846040516108f29190611e1d565b60405180910390a3505050565b5f60025f8381526020019081526020015f2090503373ffffffffffffffffffffffffffffffffffffffff16816001015f9054906101000a900473ffffffffffffffffffffffffffffffffffffffff1673ffffffffffffffffffffffffffffffffffffffff161461099b576040517f20dbc87400000000000000000000000000000000000000000000000000000000815260040160405180910390fd5b5f60048111156109ae576109ad6119be565b5b816005015f9054906101000a900460ff1660048111156109d1576109d06119be565b5b14610a08576040517f8e78f0cb00000000000000000000000000000000000000000000000000000000815260040160405180910390fd5b6004816005015f6101000a81548160ff02191690836004811115610a2f57610a2e6119be565b5b021790555060015f9054906101000a900473ffffffffffffffffffffffffffffffffffffffff1673ffffffffffffffffffffffffffffffffffffffff16637249fbb6836040518263ffffffff1660e01b8152600401610a8e9190611aec565b5f604051808303815f87803b158015610aa5575f5ffd5b505af1158015610ab7573d5f5f3e3d5ffd5b50505050817f9ccc861eaec2aceb9488758b457d6274b344707bc4e961cbaefacd208025410f60405160405180910390a25050565b6003602052805f5260405f205f915054906101000a900460ff1681565b5f60048281548110610b1e57610b1d611e36565b5b905f5260205f2001549050919050565b5f60025f8381526020019081526020015f2090505f73ffffffffffffffffffffffffffffffffffffffff16816001015f9054906101000a900473ffffffffffffffffffffffffffffffffffffffff1673ffffffffffffffffffffffffffffffffffffffff1603610bca576040517f71c8f46000000000000000000000000000000000000000000000000000000000815260040160405180910390fd5b60016004811115610bde57610bdd6119be565b5b816005015f9054906101000a900460ff166004811115610c0157610c006119be565b5b14610c38576040517f8e78f0cb00000000000000000000000000000000000000000000000000000000815260040160405180910390fd5b3373ffffffffffffffffffffffffffffffffffffffff16816001015f9054906101000a900473ffffffffffffffffffffffffffffffffffffffff1673ffffffffffffffffffffffffffffffffffffffff1614610cc0576040517f20dbc87400000000000000000000000000000000000000000000000000000000815260040160405180910390fd5b6002816005015f6101000a81548160ff02191690836004811115610ce757610ce66119be565b5b021790555060015f9054906101000a900473ffffffffffffffffffffffffffffffffffffffff1673ffffffffffffffffffffffffffffffffffffffff166367d42a8b836040518263ffffffff1660e01b8152600401610d469190611aec565b5f604051808303815f87803b158015610d5d575f5ffd5b505af1158015610d6f573d5f5f3e3d5ffd5b50505050817f2e1f6517128566f835909f0690741169a982d9b764725bede26fb30567f5a07060405160405180910390a25050565b60055481565b5f600480549050905090565b5f5f9054906101000a900473ffffffffffffffffffffffffffffffffffffffff1673ffffffffffffffffffffffffffffffffffffffff1663c3c5a547336040518263ffffffff1660e01b8152600401610e0f9190611e63565b602060405180830381865afa158015610e2a573d5f5f3e3d5ffd5b505050506040513d601f19601f82011682018060405250810190610e4e9190611ea6565b610e84576040517faba4733900000000000000000000000000000000000000000000000000000000815260040160405180910390fd5b5f60025f8381526020019081526020015f2090505f73ffffffffffffffffffffffffffffffffffffffff16816001015f9054906101000a900473ffffffffffffffffffffffffffffffffffffffff1673ffffffffffffffffffffffffffffffffffffffff1603610f20576040517f71c8f46000000000000000000000000000000000000000000000000000000000815260040160405180910390fd5b5f6004811115610f3357610f326119be565b5b816005015f9054906101000a900460ff166004811115610f5657610f556119be565b5b14610f8d576040517f8e78f0cb00000000000000000000000000000000000000000000000000000000815260040160405180910390fd5b33816002015f6101000a81548173ffffffffffffffffffffffffffffffffffffffff021916908373ffffffffffffffffffffffffffffffffffffffff1602179055506001816005015f6101000a81548160ff02191690836004811115610ff657610ff56119be565b5b021790555060015f9054906101000a900473ffffffffffffffffffffffffffffffffffffffff1673ffffffffffffffffffffffffffffffffffffffff166398957d6083336040518363ffffffff1660e01b8152600401611057929190611ed1565b5f604051808303815f87803b15801561106e575f5ffd5b505af1158015611080573d5f5f3e3d5ffd5b505050503373ffffffffffffffffffffffffffffffffffffffff16827f8cd40df77c7e62e517c29fe28dbc9cc5f986c00f7e4c7007242dd0acefdf86de60405160405180910390a35050565b5f60025f8381526020019081526020015f2090503373ffffffffffffffffffffffffffffffffffffffff16816001015f9054906101000a900473ffffffffffffffffffffffffffffffffffffffff1673ffffffffffffffffffffffffffffffffffffffff1614611168576040517f20dbc87400000000000000000000000000000000000000000000000000000000815260040160405180910390fd5b6001600481111561117c5761117b6119be565b5b816005015f9054906101000a900460ff16600481111561119f5761119e6119be565b5b146111d6576040517f8e78f0cb00000000000000000000000000000000000000000000000000000000815260040160405180910390fd5b6003816005015f6101000a81548160ff021916908360048111156111fd576111fc6119be565b5b021790555060015f9054906101000a900473ffffffffffffffffffffffffffffffffffffffff1673ffffffffffffffffffffffffffffffffffffffff16637249fbb6836040518263ffffffff1660e01b815260040161125c9190611aec565b5f604051808303815f87803b158015611273575f5ffd5b505af1158015611285573d5f5f3e3d5ffd5b50505050817f255e0866e15cf1b27945aea684f8e537ba1e43e1a35ed8a74c102ef9c0ea195f60405160405180910390a25050565b60015f9054906101000a900473ffffffffffffffffffffffffffffffffffffffff1681565b5f5f9054906101000a900473ffffffffffffffffffffffffffffffffffffffff1673ffffffffffffffffffffffffffffffffffffffff1663c3c5a547336040518263ffffffff1660e01b81526004016113389190611e63565b602060405180830381865afa158015611353573d5f5f3e3d5ffd5b505050506040513d601f19601f820116820180604052508101906113779190611ea6565b6113ad576040517faba4733900000000000000000000000000000000000000000000000000000000815260040160405180910390fd5b80341480156113bb57505f81115b6113fa576040517f08c379a00000000000000000000000000000000000000000000000000000000081526004016113f190611f42565b60405180910390fd5b5f33848442600554604051602001611416959493929190612001565b60405160208183030381529060405280519060200120905060055f81548092919061144090612079565b91905055506040518060c001604052808281526020013373ffffffffffffffffffffffffffffffffffffffff1681526020015f73ffffffffffffffffffffffffffffffffffffffff16815260200185858080601f0160208091040260200160405190810160405280939291908181526020018383808284375f81840152601f19601f8201169050808301925050505050505081526020018381526020015f60048111156114f0576114ef6119be565b5b81525060025f8381526020019081526020015f205f820151815f01556020820151816001015f6101000a81548173ffffffffffffffffffffffffffffffffffffffff021916908373ffffffffffffffffffffffffffffffffffffffff1602179055506040820151816002015f6101000a81548173ffffffffffffffffffffffffffffffffffffffff021916908373ffffffffffffffffffffffffffffffffffffffff16021790555060608201518160030190816115ad9190612284565b506080820151816004015560a0820151816005015f6101000a81548160ff021916908360048111156115e2576115e16119be565b5b0217905550905050600481908060018154018082558091505060019003905f5260205f20015f909190919091505560015f9054906101000a900473ffffffffffffffffffffffffffffffffffffffff1673ffffffffffffffffffffffffffffffffffffffff1663688e3f5f8383336040518463ffffffff1660e01b815260040161166d929190611ed1565b5f604051808303818588803b158015611684575f5ffd5b505af1158015611696573d5f5f3e3d5ffd5b50505050503373ffffffffffffffffffffffffffffffffffffffff16817f8cb0169208cf202ce133984e2b5f3bbc0de5d97a2363ad5cb5743562c5bfaf878686866040516116e69392919061237f565b60405180910390a350505050565b5f5f60605f5f5f60025f8881526020019081526020015f209050806001015f9054906101000a900473ffffffffffffffffffffffffffffffffffffffff16816002015f9054906101000a900473ffffffffffffffffffffffffffffffffffffffff16826003018360040154846005015f9054906101000a900460ff1682805461177c90611d41565b80601f01602080910402602001604051908101604052809291908181526020018280546117a890611d41565b80156117f35780601f106117ca576101008083540402835291602001916117f3565b820191905f5260205f20905b8154815290600101906020018083116117d657829003601f168201915b50505050509250955095509550955095505091939590929450565b5f73ffffffffffffffffffffffffffffffffffffffff82169050919050565b5f819050919050565b5f61185061184b6118468461180e565b61182d565b61180e565b9050919050565b5f61186182611836565b9050919050565b5f61187282611857565b9050919050565b61188281611868565b82525050565b5f60208201905061189b5f830184611879565b92915050565b5f5ffd5b5f5ffd5b5f819050919050565b6118bb816118a9565b81146118c5575f5ffd5b50565b5f813590506118d6816118b2565b92915050565b5f602082840312156118f1576118f06118a1565b5b5f6118fe848285016118c8565b91505092915050565b611910816118a9565b82525050565b5f6119208261180e565b9050919050565b61193081611916565b82525050565b5f81519050919050565b5f82825260208201905092915050565b8281835e5f83830152505050565b5f601f19601f8301169050919050565b5f61197882611936565b6119828185611940565b9350611992818560208601611950565b61199b8161195e565b840191505092915050565b5f819050919050565b6119b8816119a6565b82525050565b7f4e487b71000000000000000000000000000000000000000000000000000000005f52602160045260245ffd5b600581106119fc576119fb6119be565b5b50565b5f819050611a0c826119eb565b919050565b5f611a1b826119ff565b9050919050565b611a2b81611a11565b82525050565b5f60c082019050611a445f830189611907565b611a516020830188611927565b611a5e6040830187611927565b8181036060830152611a70818661196e565b9050611a7f60808301856119af565b611a8c60a0830184611a22565b979650505050505050565b611aa0816119a6565b8114611aaa575f5ffd5b50565b5f81359050611abb81611a97565b92915050565b5f60208284031215611ad657611ad56118a1565b5b5f611ae384828501611aad565b91505092915050565b5f602082019050611aff5f830184611907565b92915050565b5f60ff82169050919050565b611b1a81611b05565b8114611b24575f5ffd5b50565b5f81359050611b3581611b11565b92915050565b5f5f60408385031215611b5157611b506118a1565b5b5f611b5e858286016118c8565b9250506020611b6f85828601611b27565b9150509250929050565b5f8115159050919050565b611b8d81611b79565b82525050565b5f602082019050611ba65f830184611b84565b92915050565b5f602082019050611bbf5f8301846119af565b92915050565b5f611bcf82611857565b9050919050565b611bdf81611bc5565b82525050565b5f602082019050611bf85f830184611bd6565b92915050565b5f5ffd5b5f5ffd5b5f5ffd5b5f5f83601f840112611c1f57611c1e611bfe565b5b8235905067ffffffffffffffff811115611c3c57611c3b611c02565b5b602083019150836001820283011115611c5857611c57611c06565b5b9250929050565b5f5f5f60408486031215611c7657611c756118a1565b5b5f84013567ffffffffffffffff811115611c9357611c926118a5565b5b611c9f86828701611c0a565b93509350506020611cb286828701611aad565b9150509250925092565b5f60a082019050611ccf5f830188611927565b611cdc6020830187611927565b8181036040830152611cee818661196e565b9050611cfd60608301856119af565b611d0a6080830184611a22565b9695505050505050565b7f4e487b71000000000000000000000000000000000000000000000000000000005f52602260045260245ffd5b5f6002820490506001821680611d5857607f821691505b602082108103611d6b57611d6a611d14565b5b50919050565b7f726174696e6720302d31303000000000000000000000000000000000000000005f82015250565b5f611da5600c83611940565b9150611db082611d71565b602082019050919050565b5f6020820190508181035f830152611dd281611d99565b9050919050565b611de281611b05565b82525050565b5f606082019050611dfb5f830186611927565b611e086020830185611dd9565b611e1560408301846119af565b949350505050565b5f602082019050611e305f830184611dd9565b92915050565b7f4e487b71000000000000000000000000000000000000000000000000000000005f52603260045260245ffd5b5f602082019050611e765f830184611927565b92915050565b611e8581611b79565b8114611e8f575f5ffd5b50565b5f81519050611ea081611e7c565b92915050565b5f60208284031215611ebb57611eba6118a1565b5b5f611ec884828501611e92565b91505092915050565b5f604082019050611ee45f830185611907565b611ef16020830184611927565b9392505050565b7f7061796d656e74206d69736d61746368000000000000000000000000000000005f82015250565b5f611f2c601083611940565b9150611f3782611ef8565b602082019050919050565b5f6020820190508181035f830152611f5981611f20565b9050919050565b5f8160601b9050919050565b5f611f7682611f60565b9050919050565b5f611f8782611f6c565b9050919050565b611f9f611f9a82611916565b611f7d565b82525050565b5f81905092915050565b828183375f83830152505050565b5f611fc88385611fa5565b9350611fd5838584611faf565b82840190509392505050565b5f819050919050565b611ffb611ff6826119a6565b611fe1565b82525050565b5f61200c8288611f8e565b60148201915061201d828688611fbd565b91506120298285611fea565b6020820191506120398284611fea565b6020820191508190509695505050505050565b7f4e487b71000000000000000000000000000000000000000000000000000000005f52601160045260245ffd5b5f612083826119a6565b91507fffffffffffffffffffffffffffffffffffffffffffffffffffffffffffffffff82036120b5576120b461204c565b5b600182019050919050565b7f4e487b71000000000000000000000000000000000000000000000000000000005f52604160045260245ffd5b5f819050815f5260205f209050919050565b5f6020601f8301049050919050565b5f82821b905092915050565b5f600883026121497fffffffffffffffffffffffffffffffffffffffffffffffffffffffffffffffff8261210e565b612153868361210e565b95508019841693508086168417925050509392505050565b5f61218561218061217b846119a6565b61182d565b6119a6565b9050919050565b5f819050919050565b61219e8361216b565b6121b26121aa8261218c565b84845461211a565b825550505050565b5f5f905090565b6121c96121ba565b6121d4818484612195565b505050565b5b818110156121f7576121ec5f826121c1565b6001810190506121da565b5050565b601f82111561223c5761220d816120ed565b612216846120ff565b81016020851015612225578190505b612239612231856120ff565b8301826121d9565b50505b505050565b5f82821c905092915050565b5f61225c5f1984600802612241565b1980831691505092915050565b5f612274838361224d565b9150826002028217905092915050565b61228d82611936565b67ffffffffffffffff8111156122a6576122a56120c0565b5b6122b08254611d41565b6122bb8282856121fb565b5f60209050601f8311600181146122ec575f84156122da578287015190505b6122e48582612269565b86555061234b565b601f1984166122fa866120ed565b5f5b82811015612321578489015182556001820191506020850194506020810190506122fc565b8683101561233e578489015161233a601f89168261224d565b8355505b6001600288020188555050505b505050505050565b5f61235e8385611940565b935061236b838584611faf565b6123748361195e565b840190509392505050565b5f6040820190508181035f830152612398818587612353565b90506123a760208301846119af565b94935050505056fea26469706673582212204081bd247bf1e2d4d7aadfdfb1dc8af0899b52698db4c68e6334ae65bc99de6264736f6c634300081c0033",
  "linkReferences": {},
  "deployedLinkReferences": {}
}