{
  "_format": "hh-sol-artifact-1",
  "contractName": "AgentRegistry",
  "sourceName": "contracts/AgentRegistry.sol",
  "abi": [
    {
      "inputs": [],
      "stateMutability": "nonpayable",
      "type": "constructor"
    },
    {
      "inputs": [],
      "name": "AlreadyRegistered",
      "type": "error"
    },
    {
      "inputs": [],
      "name": "NotRegistered",
      "type": "error"
    },
    {
      "inputs": [],
      "name": "OnlyJobMarket",
      "type": "error"
    },
    {
      "anonymous": false,
      "inputs": [
        {
          "indexed": true,
          "internalType": "address",
          "name": "agent",
          "type": "address"
        },
        {
          "indexed": false,
          "internalType": "string",
          "name": "metadataUri",
          "type": "string"
        }
      ],
      "name": "AgentRegistered",
      "type": "event"
    },
    {
      "anonymous": false,
      "inputs": [
        {
          "indexed": true,
          "internalType": "address",
          "name": "agent",
          "type": "address"
        },
        {
          "indexed": false,
          "internalType": "string",
          "name": "metadataUri",
          "type": "string"
        },
        {
          "indexed": false,
          "internalType": "bool",
          "name": "active",
          "type": "bool"
        }
      ],
      "name": "AgentUpdated",
      "type": "event"
    },
    {
      "anonymous": false,
      "inputs": [
        {
          "indexed": true,
          "internalType": "address",
          "name": "agent",
          "type": "address"
        },
        {
          "indexed": false,
          "internalType": "uint8",
          "name": "rating",
          "type": "uint8"
        },
        {
          "indexed": false,
          "internalType": "uint256",
          "name": "payment",
          "type": "uint256"
        }
      ],
      "name": "ReputationUpdated",
      "type": "event"
    },
    {
      "inputs": [
        {
          "internalType": "address",
          "name": "",
          "type": "address"
        }
      ],
      "name": "agents",
      "outputs": [
        {
          "internalType": "address",
          "name": "wallet",
          "type": "address"
        },
        {
          "internalType": "string",
          "name": "metadataUri",
          "type": "string"
        },
        {
          "internalType": "uint256",
          "name": "avgRating",
          "type": "uint256"
        },
        {
          "internalType": "uint256",
          "name": "totalRatings",
          "type": "uint256"
        },
        {
          "internalType": "uint256",
          "name": "totalJobs",
          "type": "uint256"
        },
        {
          "internalType": "uint256",
          "name": "totalEarned",
          "type": "uint256"
        },
        {
          "internalType": "bool",
          "name": "active",
          "type": "bool"
        }
      ],
      "stateMutability": "view",
      "type": "function"
    },
    {
      "inputs": [
        {
          "internalType": "address",
          "name": "account",
          "type": "address"
        }
      ],
      "name": "getAgent",
      "outputs": [
        {
          "internalType": "address",
          "name": "wallet",
          "type": "address"
        },
        {
          "internalType": "string",
          "name": "metadataUri",
          "type": "string"
        },
        {
          "internalType": "uint256",
          "name": "avgRating",
          "type": "uint256"
        },
        {
          "internalType": "uint256",
          "name": "totalRatings",
          "type": "uint256"
        },
        {
          "internalType": "uint256",
          "name": "totalJobs",
          "type": "uint256"
        },
        {
          "internalType": "uint256",
          "name": "totalEarned",
          "type": "uint256"
        },
        {
          "internalType": "bool",
          "name": "active",
          "type": "bool"
        }
      ],
      "stateMutability": "view",
      "type": "function"
    },
    {
      "inputs": [
        {
          "internalType": "address",
          "name": "account",
          "type": "address"
        }
      ],
      "name": "isRegistered",
      "outputs": [
        {
          "internalType": "bool",
          "name": "",
          "type": "bool"
        }
      ],
      "stateMutability": "view",
      "type": "function"
    },
    {
      "inputs": [],
      "name": "jobMarket",
      "outputs": [
        {
          "internalType": "address",
          "name": "",
          "type": "address"
        }
      ],
      "stateMutability": "view",
      "type": "function"
    },
    {
      "inputs": [
        {
          "internalType": "string",
          "name": "metadataUri",
          "type": "string"
        }
      ],
      "name": "registerAgent",
      "outputs": [],
      "stateMutability": "nonpayable",
      "type": "function"
    },
    {
      "inputs": [
        {
          "internalType": "address",
          "name": "_jobMarket",
          "type": "address"
        }
      ],
      "name": "setJobMarket",
      "outputs": [],
      "stateMutability": "nonpayable",
      "type": "function"
    },
    {
      "inputs": [
        {
          "internalType": "string",
          "name": "metadataUri",
          "type": "string"
        },
        {
          "internalType": "bool",
          "name": "active",
          "type": "bool"
        }
      ],
      "name": "updateAgent",
      "outputs": [],
      "stateMutability": "nonpayable",
      "type": "function"
    },
    {
      "inputs": [
        {
          "internalType": "address",
          "name": "agent",
          "type": "address"
        },
        {
          "internalType": "uint8",
          "name": "rating",
          "type": "uint8"
        },
        {
          "internalType": "uint256",
          "name": "payment",
          "type": "uint256"
        }
      ],
      "name": "updateReputation",
      "outputs": [],
      "stateMutability": "nonpayable",
      "type": "function"
    }
  ],
  "bytecode": "0x6080604052348015600e575f5ffd5b505f60015f6101000a81548173ffffffffffffffffffffffffffffffffffffffff021916908373ffffffffffffffffffffffffffffffffffffffff16021790555061165b8061005c5f395ff3fe608060405234801561000f575f5ffd5b5060043610610086575f3560e01c8063c495fcda11610059578063c495fcda1461010e578063cc08a9661461012c578063fb3551ff14610148578063fd66091e1461017e57610086565b806328a7deb61461008a5780632d2a9585146100a6578063a2a8cc5c146100c2578063c3c5a547146100de575b5f5ffd5b6100a4600480360381019061009f9190610c95565b6101b4565b005b6100c060048036038101906100bb9190610d21565b610286565b005b6100dc60048036038101906100d79190610da1565b61050b565b005b6100f860048036038101906100f39190610c95565b6106c9565b6040516101059190610e0d565b60405180910390f35b6101166107b2565b6040516101239190610e35565b60405180910390f35b61014660048036038101906101419190610eb7565b6107d7565b005b610162600480360381019061015d9190610c95565b610a0e565b6040516101759796959493929190610f86565b60405180910390f35b61019860048036038101906101939190610c95565b610b45565b6040516101ab9796959493929190610f86565b60405180910390f35b5f73ffffffffffffffffffffffffffffffffffffffff1660015f9054906101000a900473ffffffffffffffffffffffffffffffffffffffff1673ffffffffffffffffffffffffffffffffffffffff1614610243576040517f08c379a000000000000000000000000000000000000000000000000000000000815260040161023a90611044565b60405180910390fd5b8060015f6101000a81548173ffffffffffffffffffffffffffffffffffffffff021916908373ffffffffffffffffffffffffffffffffffffffff16021790555050565b5f73ffffffffffffffffffffffffffffffffffffffff165f5f3373ffffffffffffffffffffffffffffffffffffffff1673ffffffffffffffffffffffffffffffffffffffff1681526020019081526020015f205f015f9054906101000a900473ffffffffffffffffffffffffffffffffffffffff1673ffffffffffffffffffffffffffffffffffffffff1614610348576040517f3a81d6fc00000000000000000000000000000000000000000000000000000000815260040160405180910390fd5b6040518060e001604052803373ffffffffffffffffffffffffffffffffffffffff16815260200183838080601f0160208091040260200160405190810160405280939291908181526020018383808284375f81840152601f19601f8201169050808301925050505050505081526020015f81526020015f81526020015f81526020015f8152602001600115158152505f5f3373ffffffffffffffffffffffffffffffffffffffff1673ffffffffffffffffffffffffffffffffffffffff1681526020019081526020015f205f820151815f015f6101000a81548173ffffffffffffffffffffffffffffffffffffffff021916908373ffffffffffffffffffffffffffffffffffffffff160217905550602082015181600101908161046c919061128c565b5060408201518160020155606082015181600301556080820151816004015560a0820151816005015560c0820151816006015f6101000a81548160ff0219169083151502179055509050503373ffffffffffffffffffffffffffffffffffffffff167fda816ca2fc37b9eecec62ae8263008ec6be1afb38dc28bc9c7c51d7e348da9c283836040516104ff929190611395565b60405180910390a25050565b5f73ffffffffffffffffffffffffffffffffffffffff165f5f3373ffffffffffffffffffffffffffffffffffffffff1673ffffffffffffffffffffffffffffffffffffffff1681526020019081526020015f205f015f9054906101000a900473ffffffffffffffffffffffffffffffffffffffff1673ffffffffffffffffffffffffffffffffffffffff16036105cd576040517faba4733900000000000000000000000000000000000000000000000000000000815260040160405180910390fd5b82825f5f3373ffffffffffffffffffffffffffffffffffffffff1673ffffffffffffffffffffffffffffffffffffffff1681526020019081526020015f20600101918261061b9291906113c1565b50805f5f3373ffffffffffffffffffffffffffffffffffffffff1673ffffffffffffffffffffffffffffffffffffffff1681526020019081526020015f206006015f6101000a81548160ff0219169083151502179055503373ffffffffffffffffffffffffffffffffffffffff167fd17511a6f13ca6da6758e61ba9b45f47d297ef3150bdd77fe0d1046b6d9f28dc8484846040516106bc9392919061148e565b60405180910390a2505050565b5f5f73ffffffffffffffffffffffffffffffffffffffff165f5f8473ffffffffffffffffffffffffffffffffffffffff1673ffffffffffffffffffffffffffffffffffffffff1681526020019081526020015f205f015f9054906101000a900473ffffffffffffffffffffffffffffffffffffffff1673ffffffffffffffffffffffffffffffffffffffff16141580156107ab57505f5f8373ffffffffffffffffffffffffffffffffffffffff1673ffffffffffffffffffffffffffffffffffffffff1681526020019081526020015f206006015f9054906101000a900460ff165b9050919050565b60015f9054906101000a900473ffffffffffffffffffffffffffffffffffffffff1681565b60015f9054906101000a900473ffffffffffffffffffffffffffffffffffffffff1673ffffffffffffffffffffffffffffffffffffffff163373ffffffffffffffffffffffffffffffffffffffff161461085d576040517f6beb250f00000000000000000000000000000000000000000000000000000000815260040160405180910390fd5b5f5f5f8573ffffffffffffffffffffffffffffffffffffffff1673ffffffffffffffffffffffffffffffffffffffff1681526020019081526020015f2090505f73ffffffffffffffffffffffffffffffffffffffff16815f015f9054906101000a900473ffffffffffffffffffffffffffffffffffffffff1673ffffffffffffffffffffffffffffffffffffffff1603610923576040517faba4733900000000000000000000000000000000000000000000000000000000815260040160405180910390fd5b6001816004015f82825461093791906114eb565b9250508190555081816005015f82825461095191906114eb565b925050819055506001816003015f82825461096c91906114eb565b9250508190555080600301548360ff166001836003015461098d919061151e565b836002015461099c9190611551565b6109a691906114eb565b6109b091906115bf565b81600201819055508373ffffffffffffffffffffffffffffffffffffffff167f995530532fa39be47c44313305a15cb6a5d78c5d8b1d963ce7dbff2e105250ec8484604051610a009291906115fe565b60405180910390a250505050565b5f60605f5f5f5f5f5f5f5f8a73ffffffffffffffffffffffffffffffffffffffff1673ffffffffffffffffffffffffffffffffffffffff1681526020019081526020015f209050805f015f9054906101000a900473ffffffffffffffffffffffffffffffffffffffff16816001018260020154836003015484600401548560050154866006015f9054906101000a900460ff16858054610aad906110bc565b80601f0160208091040260200160405190810160405280929190818152602001828054610ad9906110bc565b8015610b245780601f10610afb57610100808354040283529160200191610b24565b820191905f5260205f20905b815481529060010190602001808311610b0757829003601f168201915b50505050509550975097509750975097509750975050919395979092949650565b5f602052805f5260405f205f91509050805f015f9054906101000a900473ffffffffffffffffffffffffffffffffffffffff1690806001018054610b88906110bc565b80601f0160208091040260200160405190810160405280929190818152602001828054610bb4906110bc565b8015610bff5780601f10610bd657610100808354040283529160200191610bff565b820191905f5260205f20905b815481529060010190602001808311610be257829003601f168201915b505050505090806002015490806003015490806004015490806005015490806006015f9054906101000a900460ff16905087565b5f5ffd5b5f5ffd5b5f73ffffffffffffffffffffffffffffffffffffffff82169050919050565b5f610c6482610c3b565b9050919050565b610c7481610c5a565b8114610c7e575f5ffd5b50565b5f81359050610c8f81610c6b565b92915050565b5f60208284031215610caa57610ca9610c33565b5b5f610cb784828501610c81565b91505092915050565b5f5ffd5b5f5ffd5b5f5ffd5b5f5f83601f840112610ce157610ce0610cc0565b5b8235905067ffffffffffffffff811115610cfe57610cfd610cc4565b5b602083019150836001820283011115610d1a57610d19610cc8565b5b9250929050565b5f5f60208385031215610d3757610d36610c33565b5b5f83013567ffffffffffffffff811115610d5457610d53610c37565b5b610d6085828601610ccc565b92509250509250929050565b5f8115159050919050565b610d8081610d6c565b8114610d8a575f5ffd5b50565b5f81359050610d9b81610d77565b92915050565b5f5f5f60408486031215610db857610db7610c33565b5b5f84013567ffffffffffffffff811115610dd557610dd4610c37565b5b610de186828701610ccc565b93509350506020610df486828701610d8d565b9150509250925092565b610e0781610d6c565b82525050565b5f602082019050610e205f830184610dfe565b92915050565b610e2f81610c5a565b82525050565b5f602082019050610e485f830184610e26565b92915050565b5f60ff82169050919050565b610e6381610e4e565b8114610e6d575f5ffd5b50565b5f81359050610e7e81610e5a565b92915050565b5f819050919050565b610e9681610e84565b8114610ea0575f5ffd5b50565b5f81359050610eb181610e8d565b92915050565b5f5f5f60608486031215610ece57610ecd610c33565b5b5f610edb86828701610c81565b9350506020610eec86828701610e70565b9250506040610efd86828701610ea3565b9150509250925092565b5f81519050919050565b5f82825260208201905092915050565b8281835e5f83830152505050565b5f601f19601f8301169050919050565b5f610f4982610f07565b610f538185610f11565b9350610f63818560208601610f21565b610f6c81610f2f565b840191505092915050565b610f8081610e84565b82525050565b5f60e082019050610f995f83018a610e26565b8181036020830152610fab8189610f3f565b9050610fba6040830188610f77565b610fc76060830187610f77565b610fd46080830186610f77565b610fe160a0830185610f77565b610fee60c0830184610dfe565b98975050505050505050565b7f616c7265616479207365740000000000000000000000000000000000000000005f82015250565b5f61102e600b83610f11565b915061103982610ffa565b602082019050919050565b5f6020820190508181035f83015261105b81611022565b9050919050565b7f4e487b71000000000000000000000000000000000000000000000000000000005f52604160045260245ffd5b7f4e487b71000000000000000000000000000000000000000000000000000000005f52602260045260245ffd5b5f60028204905060018216806110d357607f821691505b6020821081036110e6576110e561108f565b5b50919050565b5f819050815f5260205f209050919050565b5f6020601f8301049050919050565b5f82821b905092915050565b5f600883026111487fffffffffffffffffffffffffffffffffffffffffffffffffffffffffffffffff8261110d565b611152868361110d565b95508019841693508086168417925050509392505050565b5f819050919050565b5f61118d61118861118384610e84565b61116a565b610e84565b9050919050565b5f819050919050565b6111a683611173565b6111ba6111b282611194565b848454611119565b825550505050565b5f5f905090565b6111d16111c2565b6111dc81848461119d565b505050565b5b818110156111ff576111f45f826111c9565b6001810190506111e2565b5050565b601f82111561124457611215816110ec565b61121e846110fe565b8101602085101561122d578190505b611241611239856110fe565b8301826111e1565b50505b505050565b5f82821c905092915050565b5f6112645f1984600802611249565b1980831691505092915050565b5f61127c8383611255565b9150826002028217905092915050565b61129582610f07565b67ffffffffffffffff8111156112ae576112ad611062565b5b6112b882546110bc565b6112c3828285611203565b5f60209050601f8311600181146112f4575f84156112e2578287015190505b6112ec8582611271565b865550611353565b601f198416611302866110ec565b5f5b8281101561132957848901518255600182019150602085019450602081019050611304565b868310156113465784890151611342601f891682611255565b8355505b6001600288020188555050505b505050505050565b828183375f83830152505050565b5f6113748385610f11565b935061138183858461135b565b61138a83610f2f565b840190509392505050565b5f6020820190508181035f8301526113ae818486611369565b90509392505050565b5f82905092915050565b6113cb83836113b7565b67ffffffffffffffff8111156113e4576113e3611062565b5b6113ee82546110bc565b6113f9828285611203565b5f601f831160018114611426575f8415611414578287013590505b61141e8582611271565b865550611485565b601f198416611434866110ec565b5f5b8281101561145b57848901358255600182019150602085019450602081019050611436565b868310156114785784890135611474601f891682611255565b8355505b6001600288020188555050505b50505050505050565b5f6040820190508181035f8301526114a7818587611369565b90506114b66020830184610dfe565b949350505050565b7f4e487b71000000000000000000000000000000000000000000000000000000005f52601160045260245ffd5b5f6114f582610e84565b915061150083610e84565b9250828201905080821115611518576115176114be565b5b92915050565b5f61152882610e84565b915061153383610e84565b925082820390508181111561154b5761154a6114be565b5b92915050565b5f61155b82610e84565b915061156683610e84565b925082820261157481610e84565b9150828204841483151761158b5761158a6114be565b5b5092915050565b7f4e487b71000000000000000000000000000000000000000000000000000000005f52601260045260245ffd5b5f6115c982610e84565b91506115d483610e84565b9250826115e4576115e3611592565b5b828204905092915050565b6115f881610e4e565b82525050565b5f6040820190506116115f8301856115ef565b61161e6020830184610f77565b939250505056fea2646970667358221220086f615016332be63733fd1f8955ad1610fe5de635734a632da373fe791d43d664736f6c634300081c0033",
  "linkReferences": {},
  "deployedLinkReferences": {}
}